:100000000C9442060C945F060C945F060C94E62E4A
:100010000C945F060C945F060C945F060C945F06CC
:100020000C945F060C945F060C9404170C94251B2B
:100030000C94F7260C945F060C945F060C945F06F4
:100040000C945F060C945F060C945F060C945F069C
:100050000C945F060C94DD170C945F060C945F06FD
:100060000C945F060C945F060C945F060C945F067C
:100070000C945F060C945F060C945F060C945F066C
:100080000C945F060C945F060C945F060C945F065C
:100090000C945F060C945F060C945F060C945F064C
:1000A0000C945F060C945F060C945F0620202020C1
:1000B0006162636465666768696A6B6C6D6E6F70B8
:1000C0007172737475767778797A31323334353664
:1000D00037383930524542545F2D3D5B5D5C233BE0
:1000E00027602C2E2F2020202B0014001A0008003F
:1000F00015001700290004001600070009000A0077
:10010000E1001D221B210624192805000000000023
:100110000000215222522A003100130012000C006C
:1001200018001C00340033000F000E000D000B00FF
:10013000E500383237313634103811000000000045
:10014000000024522C00280001001E001F00200087
:100150002100220001001E001F00200021002200BB
:100160000100010001000100010001000000000089
:100170000000010001000100010027002600250009
:10018000240023000100270026002500240023006E
:100190000100010001000100010001000000000059
:1001A0000000235201000100010035002F0230023F
:1001B0003602370201001E021F0220022102220223
:1001C0000100010001000100010001000000000029
:1001D00000000100010001003100270226022E026A
:1001E0002D0031022E0030002F00250224022302B0
:1001F00001000100010001000100010000000000F9
:10020000000001000100010001003A003B003C0039
:100210003D003E00010044004500680069006A009E
:1002200001000100010001000100010000000000C8
:10023000000001000100010045524300420041005E
:1002400040003F0001006F006E006D006C006B000D
:100250000100010001000100010001000000000098
:10026000000001000100010001000000000000008A
:100270000000000001007A007B007C007D0000008F
:100280000100010001000100010001000000000068
:1002900000002352010001000100000000000000E6
:1002A00000000000010001004F005200510050000A
:1002B000010000004D004B004E004A00000000000D
:1002C0000000010001000100007C000000000000AF
:1002D0000000000020782178237825782778297875
:1002E000000022782478267828782A7800000000F8
:1002F0000000405240524052010000000000000047
:10030000000000003378327830782D782C782B7804
:1003100000000000000000000000000000000000DD
:10032000000000000000000000DA0281FFD9F1DBCC
:1003300020A4A62EAF00A0C0D30000A1C8D3000007
:10034000AED580A81F408D1420001E0F0500047F2D
:100350003F1F643214643214783C1E1E140A055583
:100360006E6465660041646A7573740052616973F6
:1003700065004C6F7765720044656661756C74004A
:100380004C617965723A20003A002C206B007800AD
:10039000808182838485868788898A8B8C8D8E8FE5
:1003A0009091929394A0A1A2A3A4A5A6A7A8A9AA5C
:1003B000ABACADAEAFB0B1B2B3B4C0C1C2C3C4C5D3
:1003C000C6C7C8C9CACBCCCDCECFD0D1D2D3D4002A
:1003D0000001010101010101010102020202020208
:1003E00002020203030303030303030404040404DB
:1003F00004040505050505060606060607070707A2
:100400000708080808090909090A0A0A0B0B0B0C56
:100410000C0C0D0D0D0E0E0E0F0F0F1010111111F3
:100420001212131314141515161617171818191974
:100430001A1A1B1B1C1D1D1E1E1F202021222223D9
:100440002424252626272829292A2B2C2D2D2E2F1A
:1004500030313232333435363738393A3B3C3D3E31
:100460003F404142434445464748494A4C4D4E4F20
:1004700050515354555658595A5B5D5E5F616264E2
:10048000656668696B6C6D6F7072737577787A7B6F
:100490007D7E8082838587888A8C8E8F91939596C6
:1004A000989A9C9EA0A2A3A5A7A9ABADAFB1B3B5E6
:1004B000B7BABCBEC0C2C4C6C9CBCDCFD1D4D6D8C2
:1004C000DBDDDFE2E4E7E9EBEEF0F3F5F8FAFDFF60
:1004D000FFAA7F55402223252628292A2C2D2F309C
:1004E00032333536383A3B3D3E4042434547494A30
:1004F0004C4E5051535557595A5C5E606264666861
:10050000696B6D6F71737577797B7D7F818385876B
:10051000898A8C8E90929496989A9C9E9FA1A3A56E
:10052000A7A8AAACAEAFB1B3B4B6B8B9BBBCBEBF96
:10053000C1C2C3C5C6C7C9CACBCCCDCED0D1D2D219
:10054000D3D4D5D6D7D7D8D9D9DADADBDBDBDCDC24
:10055000DCDCDCDDDDDDDDDCDCDCDCDCDBDBDBDADC
:10056000DAD9D9D8D7D7D6D5D4D3D2D2D1D0CECD47
:10057000CCCBCAC9C7C6C5C3C2C1BFBEBCBBB9B854
:10058000B6B4B3B1AFAEACAAA8A7A5A3A19F9E9CD9
:100590009A98969492908E8C8A89878583817F7DA4
:1005A0007B79777573716F6D6B6968666462605E85
:1005B0005C5A5957555351504E4C4A49474543424E
:1005C000403E3D3B3A3836353332302F2D2C2A29E8
:1005D000282625232200AF00AE05010902A10185CE
:1005E000020901A100050919012908150025019535
:1005F00008750181020501093009311581257F95B2
:10060000027508810609381581257F9501750881D5
:1006100006050C0A38021581257F950175088106AB
:10062000C0C005010980A101850319012AB7001581
:100630000126B700950175108100C0050C0901A1C4
:1006400001850419012AA002150126A00295017551
:10065000108100C005010906A1018506050719E002
:1006600029E7150025019508750181020507190084
:1006700029EF1500250195F0750181020508190182
:100680002905950575019102950175039101C00534
:10069000010906A101050719E029E71500250195C3
:1006A0000875018102950175088101050719002966
:1006B000FF150026FF009506750881000508190141
:1006C0002905150025019505750191029501750310
:1006D0009101C009023B00020100A0FA09040000D8
:1006E0000103010100092111010001224400070555
:1006F0008103080001090401000103000000092131
:100700001101000122B60007058203200001120139
:100710000002000000085346010001000102000130
:100720000C0343006F0072006E00650000001003B0
:1007300066006F006F007300740061006E000000BF
:10074000040309040000000000003E5B4F5B3E0014
:100750003E6B4F6B3E001C3E7C3E1C00183C7E3CBA
:1007600018001C577D571C001C5E7F5E1C00001883
:100770003C180000FFE7C3E7FF0000182418000042
:10078000FFE7DBE7FF0030483A060E00262979290B
:100790002600407F05050700407F05253F005A3CA5
:1007A000E73C5A007F3E1C1C0800081C1C3E7F00D2
:1007B00014227F2214005F5F005F5F0006097F0143
:1007C0007F00006689956A0060606060600094A2A6
:1007D000FFA2940008047E04080010207E20100070
:1007E00008082A1C0800081C2A0808001E101010FF
:1007F00010000C1E0C1E0C0030383E383000060E67
:100800003E0E060000000000000000005F00000037
:10081000000700070000147F147F1400242A7F2A99
:100820001200231308646200364956205000000865
:1008300007030000001C224100000041221C0000B0
:100840002A1C7F1C2A0008083E080800008070301F
:100850000000080808080800000060600000201080
:10086000080402003E5149453E0000427F4000001E
:100870007249494946002141494D33001814127FFD
:1008800010002745454539003C4A4949310041217E
:1008900011090700364949493600464949291E00D1
:1008A0000000140000000040340000000008142282
:1008B0004100141414141400004122140800020111
:1008C000590906003E415D594E007C1211127C0010
:1008D0007F49494936003E41414122007F41414123
:1008E0003E007F49494941007F09090901003E4115
:1008F000415173007F0808087F0000417F410000DC
:100900002040413F01007F08142241007F404040C9
:1009100040007F021C027F007F0408107F003E41E0
:1009200041413E007F09090906003E4151215E0018
:100930007F091929460026494949320003017F01F0
:1009400003003F4040403F001F2040201F003F4029
:1009500038403F0063140814630003047804030064
:100960006159494D4300007F414141000204081094
:100970002000004141417F00040201020400404088
:100980004040400000030708000020545478400015
:100990007F284444380038444444280038444428DC
:1009A0007F0038545454180000087E0902001824AF
:1009B000241C78007F080404780000447D40000077
:1009C0002040403D00007F102844000000417F404F
:1009D00000007C04780478007C0804047800384423
:1009E000444438007C1824241800182424187C005F
:1009F0007C080404080048545454240004043F4470
:100A000024003C4040207C001C2040201C003C4036
:100A100030403C004428102844004C9090907C00CA
:100A20004464544C44000008364100000000770044
:100A300000000041360800000201020402003C26CA
:100A400023263C0000000000000000000000000021
:100A500000000000C0E0F0F8F81800C0F0FCFEFF55
:100A6000FFFFFFFFFFFF7E0000000000000000000E
:100A700080C0E0E0E0E0E0E0E0E0C08000000000F6
:100A800080C0E0E0E0E0E0E0E0E0C080000000E006
:100A9000E0C0C0E0E0E0E00000E0E0C0C0E0E0E096
:100AA000E0E0C0800000000080C0E0E0E0E0E0E0C6
:100AB000E0E0C08000000000000000000000000036
:100AC0000000E0F0F0F0E0ECEEF7F37020007C7C4A
:100AD0007C7E007E7E7E7F7F7F000080C0E07E5B2C
:100AE0004F5BFEC00000C000DCD7DEDEDED7DC00DE
:100AF000C000000000000000000000000000000036
:100B000000000000000000000000000000F8FCFEF3
:100B1000FFE000FFFFFFFFFFFF80FFFFFFFFFFFF82
:100B2000FFFFFF1F0701000000000000000000FFA2
:100B3000FFFF8100000000000081C3C3C30000FF6D
:100B4000FFFF8100000000000081FFFFFF0000FFA9
:100B5000FFFF01000000000000FFFFFF0100000098
:100B60000001FFFFFF0000FFFFFF9D1C1C1C1C1C61
:100B70001C9DDFDFDF00000000000000000000001F
:100B800000000F1F3F7F7F7F7F7F3F1E0C001F1FD6
:100B90001F3F003F3F3F7F7F7F00307B7F783020CB
:100BA0002030787F3B0003000F7F0F0F0F7F0F0077
:100BB0000300000000000000000000000000000032
:100BC00000000000000000000000000000030F1FF4
:100BD0003F3F3F3F1F1F3F3F7F7F7F3F3F1F3F7F85
:100BE0007F7F7F7C7878381C0F00000000000000B9
:100BF00001030707070707070707030100000000B5
:100C0000010307070707070707070301000000079D
:100C100007070000000000000007070700000000B1
:100C20000000070707000000010307070707070781
:100C300007070301000000000000000000000000A2
:100C400000000000000000000000000000000000A4
:100C50000000000000000000000000000000000094
:100C60000000000000000000000000000000000084
:100C70000000000000000000000000000000000074
:100C80000000000011241FBECFEFDAE0DEBFCDBFB1
:100C900027E0ACECB1E001C01D92A031B207E1F752
:100CA00011E0A0E0B1E0EEEBF4E602C005900D9299
:100CB000AC3CB107D9F70E941E270C9409320C9462
:100CC0000000482F209101059091C80457E0291396
:100CD00002C080E0089530E0529FF001539FF00D74
:100CE0001124E753FB4F8181681306C080814813AC
:100CF00003C085818111EECF2F5F3F4F2770E7CF73
:100D0000FC01AC014C5F5F4F8FEF91E32191822793
:100D100028E030E087FF09C0880F8927215031097A
:100D2000C9F7E417F50791F70895880FF7CFE8EDB5
:100D3000F0E080818E7F80831092E2001092DA00D2
:100D40001092E100A0EEB0E08C9181608C938081E4
:100D50008F77808319BCA7EDB0E08C918E7F8C9348
:100D600080818F7E80831092B10408952091E400E9
:100D70003091E50095E6A9012091EC00822F817069
:100D800020FF06C08091E80080FF06C080E0089543
:100D90002091E80022FD1AC08091BE04882389F0CA
:100DA000853089F08091EB0085FD0FC02091E40033
:100DB0003091E50042175307F9F29150E1F684E0D3
:100DC000089582E0089583E0089581E00895809178
:100DD000C00487FF13C08091E80082FF06C08091A5
:100DE000E8008B778093E80004C08091BE048111F5
:100DF000F2CF08958091BE048823D9F38091E80052
:100E000080FFF8CF8091E8008E77ECCF982F9093F9
:100E1000E900242F762F50E0891731F07091EC0013
:100E20002091ED005091F00021FD07C09F5F9730A9
:100E300071F78093E90081E008953091EB003E7FE7
:100E40003093EB003091ED003D7F3093ED00309119
:100E5000EB0031603093EB007093EC002093ED00D9
:100E60005093F0002091EE0027FDE0CF80E0089540
:100E7000B0E0A0E0EEE3F7E00C942030C8EDD0E065
:100E800088818F7E8883E7EDF0E0808181608083B8
:100E900084E082BF81E08093B10488818E7F888363
:100EA00002EE10E0F80110821092DA0081EEC82EF6
:100EB000D12CF601108288818F77888388818068A1
:100EC000888388818F7D888319BC1092BE0410921C
:100ED000BF041092BD041092BC0490EEE92EF12CD8
:100EE000F70180818B7F808388818160888342E0E5
:100EF00060E080E00E940607F60180818E7F80839B
:100F0000F801808181608083808188608083F7011F
:100F100080818E7F8083888180618883CDB7DEB7B2
:100F2000E8E00C943C30FC018091C6049091C70429
:100F300086179707A0F06115710529F49091E800D4
:100F40009E779093E80090E06115710551F491113E
:100F500008C08091E80082FF34C080E00895BC01A1
:100F6000F2CF8091BE048823C1F18530C1F1809118
:100F7000E80083FD30C08091E80082FDEACF8091D7
:100F8000E80080FFE1CF8091F3002091F200382F3C
:100F90006115710519F02830310558F091E02830BD
:100FA000310509F090E02091E8002E772093E800C9
:100FB000CBCF81918093F100615071092F5F3F4F3A
:100FC000E7CF8091BE04882341F0853041F08091C5
:100FD000E80083FFBECF81E0089582E0089583E0BA
:100FE00008958091B304089587E797E790930108E7
:100FF0008093000888E19AE00FB6F894A895809352
:1010000060000FBE90936000FFCF2FB7F8946091FF
:10101000AD047091AE048091AF049091B0042FBFE5
:10102000089590914C019923D1F09091AA0497FFD3
:1010300016C0E82FE695E695E695EE31E0F4F0E08F
:10104000EA52FE4F282F277081E090E001C0880F00
:101050002A95EAF780959281892382830895E0EDAD
:10106000F1E09191891303C0DF0111971C9291E087
:10107000E63DF907B1F7089590914C019923C1F02D
:101080009091AA0497FF14C0E82FE695E695E6959F
:10109000EE31F8F4F0E0EA52FE4F877021E030E0E4
:1010A00001C0220F8A95EAF78281822B82830895FC
:1010B000A0EDB1E0EFEF90E02D91821751F0EF3FFE
:1010C00019F4211101C0E92F9F5F9630A9F7EF3F76
:1010D00009F408950E2E000CFF0BE253FE4FE6CFED
:1010E000A3E0B0E0E6E7F8E00C9426302091A804F5
:1010F0003091A90428173907A1F09093A90480938F
:10110000A804E091A604F091A704309751F024E0E0
:1011100029839B838A830084F185E02DCE0101968B
:1011200009952396E2E00C944230A3E0B0E0EBE9AD
:10113000F8E00C9426302091A4043091A5042817DF
:101140003907A1F09093A5048093A404E091A6042C
:10115000F091A704309751F023E029839B838A8381
:101160000084F185E02DCE01019609952396E2E0F9
:101170000C9442308091A204882359F0E091A60497
:10118000F091A704309729F00190F081E02D0995A6
:10119000089580E008958091970480FD16C081FD38
:1011A00016C082FD16C0809196048823A1F0883273
:1011B00080F428E0829FC001112468E270E00E9460
:1011C0006730862F672B39F0089582E0089584E018
:1011D000089588E0089581E008958091970480FD46
:1011E00014C081FD14C082FD16C08091950488232F
:1011F00081F08E3180F420E5829FC00111246EE1E0
:1012000070E00E946730862F089584E1089588E297
:10121000089588E0089580E50895282F35EB23038D
:10122000C001112497FF04C080589109892F0895A7
:1012300080589F4FFBCFFA01811101C0FB01099536
:1012400008950895E1EDF2E0118282818460828345
:10125000089580918704982F9C7F61F48370846047
:101260008093870480918A04893718F088E78093F7
:101270008A0408958C3AB0F38370886AF1CFAF92F4
:10128000BF92DF92EF92FF920F931F93CF93DF9362
:10129000182F062FE901493708F048E7E42FF0E05E
:1012A000E053FC4F011110C0E4915E2F4E2F498393
:1012B000E8835A83DF91CF911F910F91FF90EF90B8
:1012C000DF90BF90AF900895202F30E04491D42E4E
:1012D000E42EF12C56E0159FC0011124EFEFF0E051
:1012E000BF010E940230812F90E0880F991F55E5C1
:1012F000569FD001579FB00D11248A1B9B0B982F2E
:10130000990F890F5F01A21AB30AAE9CD001AF9C5E
:10131000B00DBE9CB00D11245B2F089F80011124DD
:10132000012F11275F01A01AB10AAE9C8001AF9C6A
:10133000100DBE9C100D11245F01A81AB108A29EC9
:10134000C001A39E900DB29E900D1124892F992764
:10135000E81BF90BEE9DC001EF9D900DFE9D900DD9
:101360001124E92F62307105A1F050F46115710567
:1013700009F49DCF6130710581F0EB2F512F97CF8C
:101380006430710569F080F06630710509F48FCF23
:10139000F4CFE42F4B2F592F8ACFE42F412F87CF43
:1013A000EB2F542F492F83CF4B2F5D2DE12F7FCF74
:1013B00080E00895F894E82FE295EF70F0E031A115
:1013C000282F2F7081E090E001C0880F2A95EAF75E
:1013D000982F9095932391A392A1892B82A378941F
:1013E00008950F931F938091A204882329F00E94EF
:1013F00005081F910F9108950E940508009174023D
:10140000109175022091760230917702600F711F62
:10141000821F931FEECF9091AA0492FF10C041E06B
:10142000282F2471243009F040E031E0282F287162
:10143000283009F030E0431711F02CE0822793FFA9
:1014400010C041E0282F2471243109F040E031E040
:10145000282F2871283109F030E0431711F02CE0D3
:1014600082273091AB0430FF10C051E0282F21714A
:10147000213009F050E041E0282F2871283009F090
:1014800040E0541711F029E0822731FF10C041E0FD
:10149000282F2171213109F040E031E0282F2871F7
:1014A000283109F030E0431711F029E0822794FD3C
:1014B000877E089582389105B9F1B0F481339105A2
:1014C00009F47DC048F48932910509F46DC08A326F
:1014D000910509F47BC008958533910509F45FC037
:1014E0008933910509F10895833E9105D9F138F4C6
:1014F000803E910529F1823E910579F10895863E5D
:101500009105D9F1873E910509F43EC0843E9105CD
:1015100041F52091AB0421FF24C08091AA0484FDF1
:1015200019C087EE90E008952091AA04237009F075
:101530005AC02091AB0423FF14C089E290E00895C3
:101540002091AA0420FD38C03091AB0430FF09C0BF
:1015500024FF43C090E080E008952091AA0422FD7A
:10156000F7CF08952091AA0422FD3AC03091AB0430
:1015700030FD39C024FFF5CFEDCF2091AA0423FF21
:10158000F0CF24FDE7CFCDCF2091AA0423FD2EC0BC
:101590003091AB0431FFEECF84EE90E008952091BE
:1015A000AA0425FFDECFC9CF2091AA0425FD21C0C2
:1015B0002091AB0423FFD5CF89E390E0D2CF2091D7
:1015C000AA0426FFCECF8AE290E008952091AA04D3
:1015D00026FFC7CF81E390E0089583EE90E0089561
:1015E00082EE90E0089580EE90E0089586EE90E01F
:1015F000089585E390E00895972F7830B8F4663029
:10160000A8F48630B0F470E026E0929F600D711D62
:101610001124FB0190E3899FE00DF11D1124EE0FD1
:10162000FF1FE851FF4F85919491089580E090E06D
:10163000089581E0FCCF1F93CF93DF930E945A0A55
:10164000EC01C11580E5D807F0F5C11580E4D80795
:1016500008F09CC0C03ED10520F5CD3CD10508F076
:1016600082C0C83AD10578F4C53AD10508F073C0F4
:10167000C130D10519F1209709F1C430D105F0F43A
:10168000D0E0C0E01BC0C33CD105D0F7C85AD0E0C1
:10169000CC0FDD1FCA5ADE4F0990D881C02DD4640B
:1016A0000DC0C11580E2D80708F0D1C0C11581E096
:1016B000D80708F05AC0C83ED10510F7CE01DF9117
:1016C000CF911F910895C03682E5D80718F5C03430
:1016D00082E5D80708F06BC0C03282E5D80708F071
:1016E0005FC0C11582E5D80708F497C02C2F269556
:1016F000269580E2289F900111248C2F8370C1E0F1
:10170000D0E002C0CC0FDD1F8A95E2F7C22BD32BAD
:10171000DD68D4CFC03A82E5D80760F4C03882E5EE
:10172000D80708F459C0CF71D0E0DC2FCC27C46FA4
:10173000D06AC4CFC03C82E5D80708F462C0C03E7E
:1017400082E5D80708F09CCFDC2FCC27CC27DF71AF
:10175000C06FD06AB3CFC55AD0E0CD5ADE4FC88132
:10176000D0E0D064ABCFD065A9CF8D2F0E940B0AFB
:10177000182FCE0199270E945A0AC12FD0E0DC2FE2
:10178000CC27CC27DF71C82BD92B98CFCE01992736
:101790000E945A0ACC27DF70C82BD92BD06A8ECF73
:1017A000CF71D0E0DC2FCC27C16FD06A87CF2C2F30
:1017B00026952695277080E2289F900111248C2F72
:1017C0008370C1E0D0E002C0CC0FDD1F8A95E2F744
:1017D000C22BD32BDC6872CF2C2F26952695277031
:1017E00080E2289F900111248C2F8370C1E0D0E00B
:1017F00002C0CC0FDD1F8A95E2F7C22BD32BDA682B
:101800005DCF8C2F8F710E940B0AC82FD0E0DC2F88
:10181000CC27CC27DF71D06251CF8C2F8F710E94E3
:101820000B0A55E0D695C7955A95E1F7CF70D0E0F1
:10183000DC2FCC27282F30E084FF05C044E0220FA6
:10184000331F4A95E1F7C22BD32BD06937CF8D2FA9
:101850008F710E940B0A182FCE0199270E945A0AF5
:10186000C12FD0E0DC2FCC27CC27DF71C82BD92BA0
:10187000D2CF80959091420298239093420208958E
:101880008091420290911902892B9091180299231C
:1018900091F0892B90914C01992371F09091AA04B9
:1018A00097FF0AC09EE128ED31E040E0915040F4FE
:1018B000411110921802089596E020ED31E0F5CF25
:1018C000F90151919F01552389F34F5FEFCF80912B
:1018D00001059091C804981301C008958F5F877027
:1018E000FACFB0E0A0E0E7E7FCE00C941F307C0109
:1018F0000091990210919A02809182029091830244
:10190000082B192BCFE0D0E0CC24C394D12CBC2ED3
:10191000C6010C2E02C0880F991F0A94E2F780239B
:101920009123892B49F4219790F7B12C8B2DCDB7BA
:10193000DEB7E9E00C943B30B7018C2F0E94FC0A23
:101940000E941B0B019779F3F1CFCF93DF93EC014A
:101950000E94710CBE010E94FC0A0E941B0BDF91C9
:10196000CF910895983078F5863068F5E82FF0E04B
:1019700086E0989FE00DF11D11249E2F977083E063
:10198000F695E7958A95E1F7EE0FFF1FEE0FFF1F23
:10199000E850FE4F50E040E080E0219130E0092E19
:1019A00002C0369527950A94E2F721703327042E5A
:1019B00001C0220F0A94EAF7822B4F5F5F4F443039
:1019C000510559F7089580E00895983098F58630CC
:1019D00088F5E82FF0E086E0989FE00DF11D1124D6
:1019E0008E2F877041E001C0440F8A95EAF783E0AB
:1019F000F695E7958A95E1F7EE0FFF1FEE0FFF1FB3
:101A0000E850FE4F30E020E070E05191DF01119787
:101A1000CB01022E02C0969587950A94E2F7817059
:101A200081958527842385278C932F5F3F4F243012
:101A3000310559F70895FC0124812223C1F08081EA
:101A400091810E94A50C92959F70963091F058F468
:101A5000925F9F70923058F4803F19F030F4883EC6
:101A600030F481E008959A5FF4CF843FD1F380E0B1
:101A70000895883EB0F3813FD1F7F3CF292F332764
:101A800040E02115310511F0C90148E09C0164E0F6
:101A9000369527956A95E1F72115310511F04C5FD0
:101AA000C9019C0136952795369527952115310555
:101AB00011F04E5FC90196958795892B09F04F5F0C
:101AC000842F0895A6E0B0E0E8E6FDE00C94253010
:101AD00049835A8349815A819923A1F0222391F0A5
:101AE000CA010E94710C182F682F89819A810E9467
:101AF000E50C69817A81812F0E94FC0A2696E3E039
:101B00000C944130CA010E94B20C182FF2CFCF932F
:101B1000DF93682F81E06A3019F06D3031F480E096
:101B20000E94150EDF91CF91089580910E0790913C
:101B30000F0726E0FC01A8E0B7E001900D922A957E
:101B4000E1F7603E08F458C026E0FC0111922A95A6
:101B5000E9F7C0910E07D0910F0746E050E0BE01B3
:101B600088E097E00E9438319E0128503540892B4B
:101B700041F1C90145E0969587954A95E1F741E025
:101B800050E0BA0102C0660F771F8A95E2F7CB01D9
:101B90006091060570910705862B972BB9016B5F45
:101BA0007F4FE5E076956795EA95E1F702C0440F2F
:101BB000551F6A95E2F7842B952B90930705809328
:101BC00006052A5F3F4F40910505642F70E0C9016B
:101BD0000E940230481B463010F4240F311D21159D
:101BE00072E0370710F030E020E0285F3A4F309382
:101BF0000F0720930E0796CFF6E06F9FB0011124D8
:101C00006C5B784F46E050E00E942231A2CFCF9328
:101C1000DF93EC01FE018491811103C0DF91CF912C
:101C200008950E94870D2196F5CFCF93382FE0912C
:101C30000E07F0910F07E850F54020910505622F3F
:101C400070E0CF010E940230281B822F332361F005
:101C500066E00E944D30C82FC15010F4CF91089516
:101C600080E20E94870DF8CF9F01280F311D2115BA
:101C7000324018F080E0F0E0E0E08E0F9F2F911DE1
:101C8000885F9A4F90930F0780930E07E7CF0E94CB
:101C9000070E81E00E94150E089580914C01882363
:101CA00059F18091AA0487FF27C00E94400C8093BD
:101CB000D70140E250E06AE172E086ED91E00E94D7
:101CC0003831892BC1F080E2E6EDF1E0AAE1B2E023
:101CD00001900D928A95E1F7E091A604F091A70496
:101CE000309749F086E08093D6010480F581E02D9D
:101CF00086ED91E0099508950E94400C8093CE01F5
:101D000048E050E06AE372E08EEC91E00E943831E6
:101D1000892B89F388E0EEECF1E0AAE3B2E00190D0
:101D20000D928A95E1F7E091A604F091A70430970F
:101D300011F30280F381E02D8EEC91E0DBCF88235C
:101D400021F00E94390C0E944D0E0895882339F02D
:101D500090914202982B909342020E944D0E08955A
:101D60000F931F93CF93DF938B01EA019091BE04F1
:101D7000943061F58093E9008FEF9091E8008150F5
:101D800095FD06C095ED9A95F1F700008111F5CF0C
:101D90008091E80085FF1AC00E94B606811111C02B
:101DA0008091E80085FD06C08091E8008E778093E1
:101DB000E800F2CFF80181918F018093F100219723
:101DC00079F78091E8008E778093E800DF91CF91DA
:101DD0001F910F91089543E050E0BC0182E00E9402
:101DE000B00E089546E050E0BC0182E00E94B00EC3
:101DF000089540E250E0BC0182E00E94B00E0895D8
:101E0000CF93DF93EC0148E050E0BC0181E00E94F9
:101E1000B00E88E0FE01A4EBB4E001900D928A952B
:101E2000E1F7DF91CF910895609148018091870497
:101E300080FF20C08091470143E0849FC0011124AE
:101E400089529D4F539A2BB1277F3BB138605FB7C2
:101E5000F894FC01649FE00DF11D1124BF01681787
:101E60007907D1F45FBF8FE594E00197F1F700C0E7
:101E7000000008958091490190914A0123E0829FDA
:101E8000F0011124E952FD4F8917A0F6118210824A
:101E900012828F5F3396F8CFFC014191CF01E8E0C9
:101EA0003BB9000000C047FF2BB9440F000000C041
:101EB00000C000C02BB900C0EA9591F7D0CF0F93B6
:101EC0001F93CF93DF93EC0110E000E090914B0162
:101ED0009017110609F06CF40E94140F8C8190E0A9
:101EE0000196817099278C83DF91CF911F910F917B
:101EF000089520914901A801420F511D9A01220F16
:101F0000331F240F351F29523D4F4C8160918904A6
:101F10008091880496959017110651F04CF0442357
:101F200049F040918A040E943F090F5F1F4FCECFB6
:101F30004423B9F340E0F7CFB0E0A0E0E2EAFFE0ED
:101F40000C941C30EC014C81042F10E09801D80156
:101F50000E94FA319B01AC010E94C5314B015C012A
:101F6000E0E2F0E0E01BF10BA5E5B0E0AC019B0185
:101F70000E94C5316B017C019F01DF010E9481300D
:101F80009B01AC010E94D0319B01AC01280D391D91
:101F90004A1D5B1DC701B6010E94D831F22E822F67
:101FA00090E039E23F1520F143E0249F9001112495
:101FB00035952795122F109500E085E5E82EEF184E
:101FC00080914B01081718F10E94140F9C8181E049
:101FD000992319F0903219F48FEF80934601809184
:101FE0004601890F8C83CDB7DEB7ECE00C94383016
:101FF00025E530E0B901681B790B9B01220F331FE7
:10200000260F371F37FFD4CF2F5F3F4FD1CF8E2DF5
:1020100001FD8F2D20914901622F600F7727771FD7
:102020009B01220F331F260F371F29523D4F412F8F
:10203000609189040E943F090F5FC2CFEF92FF9227
:102040000F931F93CF93DF93EC018C81811109C013
:1020500081E08C831092D50292E0909345018093A9
:1020600044018091490190914A0123E0829FF0014F
:102070001124E952FD4F891758F110E003E06091F7
:102080004B01161758F10E94140F809144012091C2
:10209000D502280F2093D50290914501980F909377
:1020A0004501191654F4022E000C330B40914B01DC
:1020B0004150550B2417350734F081958093440126
:1020C000813009F41C82CDB7DEB7E6E00C943E30D7
:1020D0001182108212828F5F3396CDCFE12EF12CC8
:1020E00070E0C7010E94673020914901820F482F9C
:1020F00050E02091D502022E000C330BE216F306BD
:10210000BCF020914501022E000C330B2E153F052B
:102110007CF0809F9001112429523D4F40918A0408
:1021200060918904809188040E943F091F5FA7CFB6
:10213000FA01EE0FFF1FE40FF51FE952FD4F118268
:1021400010821282F3CFB0E0A0E0E9EAF0E10C9453
:102150001C30EC018A81BB24BA9480FD02C0BB24F0
:10216000B394A0904B018C81811109C081E0B81219
:1021700020C08FEF8A0D8093D40281E08C83F12CF4
:10218000E12C46E3942EEA14B8F00E94140F8091DB
:10219000D40291E0B91257C0811150C080914B0117
:1021A00081508093D4021C82CDB7DEB7ECE00C9452
:1021B00038301092D402E1CF009149010E0D1F2D4D
:1021C000111DC801880F991F080F191F09521D4FB3
:1021D000F80111821082128234E0C32ED12C812C9E
:1021E0008091D402880D87332CF1692D0E945930DB
:1021F000892F082E000C990B8E159F0591F4809164
:102200008A048C9DA0018D9D500D112455954795F4
:1022100055954795980160918904809188040E94A2
:102220003F098B0CF1E0CF1AD108D1F68FEFE81AF5
:10223000F80AA9CF87FFDDCF8A0DDBCF81508093CD
:10224000D402BC82B1CF90E0019660914B0170E066
:102250000E9467308093D4028C83A6CFEF92FF92C6
:102260001F93CF93DF93EC0110E0EE24EA94F12C5E
:1022700060914B01161770F00E94140F9A818C81A7
:1022800090FF27C08F5F8C83DF91CF911F91FF90CC
:10229000EF90089520914901422F410F5527551F76
:1022A000CA019A01220F331F280F391F29523D4FAF
:1022B00070E0C7010E946730962F8C8140918A049C
:1022C00060918904199F800D11240E943F091F5FAE
:1022D000CFCF8150D8CF9091870490FF0EC09091BE
:1022E000490120914A0133E0939FF0011124E95202
:1022F000FD4F921718F00E94140F08958183608398
:1023000042839F5F3396F5CFA3E0B0E0EAE8F1E1C6
:102310000C9424308C018091D60281110AC09E0158
:102320002F5F3F4F48E76FEF0E943F098A818093FC
:10233000D602F8016481613069F08091D60240E0F4
:10234000662361F040E0623011F44091D60280E0F3
:1023500060E004C06091D60240E080E00E946B1112
:10236000F801848190E0019663E070E00E9467309C
:1023700084832396E4E00C944030A3E0B0E0E3ECE7
:10238000F1E10C9426309091870490FF0AC09E01E1
:102390002F5F3F4F0E943F094B8169818A810E94D4
:1023A0006B112396E2E00C944230CF93DF93EC0163
:1023B000E7E8F4E0438162818C810E94BD118C8149
:1023C0008F5F8C83DF91CF910895CF93DF93EC01E2
:1023D000EC81F0E0EB52FB4F4491E7E8F4E06281DE
:1023E00081810E94BD118C818F5F8C83DF91CF91A1
:1023F0000895B0E0A0E0EFEFF1E10C941E307C0115
:102400005B016A018091730201E010E08A3010F4F0
:102410000AE010E0C1E0D0E0B501C701F60109957E
:10242000811104C021960C171D072CF4CDB7DEB71F
:10243000EAE00C943A30CC9F9001CD9F300D300DE6
:10244000112490E080E045E34A95F1F70000019601
:1024500082179307C1F7E0CFB0E0A0E0E2E3F2E13A
:102460000C9420306C017B0164E670E088E70E94E8
:10247000602D8C01E601EC0CFD1C17FD0BC0FE016C
:10248000849164E670E00E94CC2D8C012196CE15DB
:10249000DF0599F70E94422E81E00115110509F030
:1024A00080E0CDB7DEB7E8E00C943C308091930437
:1024B00090919404911103C091E089270895882395
:1024C00069F062E070E087ED95E00E942C128111C6
:1024D00003C0809193040895109293048091930413
:1024E000EBCFCF93C0919304809194048823D1F0D3
:1024F0000E940508605A75418F4F9F4F60938F046B
:10250000709390048093910490939204C11108C039
:1025100062E070E085ED95E00E942C12811105C00B
:10252000C09193048C2FCF91089581E08093930400
:10253000F7CFB0E0A0E0EFE9F2E10C941830FC0135
:102540006280448081E08483E5EDF4E07490E4E50A
:10255000F5E0E491C0918A04C695C158D0E0CC0F53
:10256000DD1FCD2FDD27812C75E0972EAA24AA949C
:10257000B12C55245A94E719EE2EF12C80914B0181
:10258000881638F00E94140FCDB7DEB7E0E10C9446
:102590003430C82CD12C82E0861568F09C9CF00168
:1025A0009D9CF00D1124E758FC4F80918804808396
:1025B000809189048183411023C09C9CF0019D9CE3
:1025C000F00D1124E758FC4F13821282209149012B
:1025D000C601820F911D9C01220F331F280F391F46
:1025E00029523D4F9C9CF0019D9CF00D1124E75811
:1025F000FC4F4281618180810E943F098394BECF5C
:102600009C9C80019D9C100D112407581C4FF801C3
:1026100083818823F1F081508383859DC00111243B
:10262000648170E00E940230FB01FF27EB52FB4FF8
:102630008491E82FE719E59DC0011124B7010E949C
:10264000023080918A04689FB0011124F8017283DE
:10265000BDCF0E941231B5010E9467308C179D07D3
:102660000CF0B4CFF2E0F61598F40E941231B501E7
:102670000E946730F80180830E9412312091890402
:102680002695622F70E00E946730280FF8012183A1
:102690009C9CF0019D9CF00D1124E758FC4F128288
:1026A00080918A04893C58F088EC9C9CF0019D9CA8
:1026B000F00D1124E758FC4F8483838387CF843146
:1026C000A0F784E1F2CFB0E0A0E0E9E6F3E10C94FA
:1026D0001C3049015A016B017C010E9429098401C7
:1026E000A4016A2D7B2D88E090E00E948431940142
:1026F0004A2D5B2DB601C70100E20E94AB30622F6C
:1027000084E290E00E947231CDB7DEB7ECE00C9429
:102710003830A3E0B0E0EFE8F3E10C941F30082F6D
:10272000E62EF42EC22E9091870490FF41C0209196
:102730008804281308C080918904861304C08091FE
:102740008A04841729F08091D30282608093D30297
:10275000E92FE695E695AE2FB0E0A056BE4F8C91DE
:102760008093D1029C7F943039F59E012F5F3F4FBB
:102770004F2D6E2D802F0E943F094B8169818A81E8
:102780000E946B1100938804E0928904F0928A04FD
:10279000CC2071F02091870460918B0470918C049F
:1027A000302FA70180918D0490918E040E946313B5
:1027B0002396E9E00C943B30823019F4F0908A04BF
:1027C000E1CF8630A1F1893091F18931D9F6E95113
:1027D0006E2F6170B62EE695F0E0E053FB4F14913A
:1027E000D12C60914B01D61618F00E94140FCACF5D
:1027F000D19EC001112470E00E940230802FB110E0
:1028000014C0860F20914901622F6D0D7727771F25
:102810009B01220F331F260F371F29523D4F4F2D8B
:102820006E2D0E943F09D394DCCF861BEBCF022F85
:10283000A9CFE7E8F4E0438121E1421B08F440E03E
:1028400021E0628181810E9489130895E7E8F4E024
:10285000438121E1420F08F44FEF21E06281818141
:102860000E9489130895E7E8F4E0628121E1621B88
:1028700008F460E021E0438181810E94891308957A
:10288000E7E8F4E0628121E1620F08F46FEF21E0F4
:10289000438181810E9489130895E7E8F4E08181F2
:1028A00021E0438162818A500E9489130895E7E8FC
:1028B000F4E0818121E043816281865F0E94891377
:1028C0000895A7E8B4E0E82FF0E0E35BFE4F20E0D6
:1028D00013964C91139712966C9180810E948913E4
:1028E0000895CF93DF93EC0180918202909183024F
:1028F0008C2B9D2B0E943E0D0E946114D0939A0256
:10290000C0939902DF91CF91089521E030E002C099
:10291000220F331F8A95E2F7209530958091990216
:1029200090919A02822393230E94711408959091AA
:1029300017028095892380931702282F277069F446
:10294000891759F09091AB0492FF07C08695869540
:1029500086950E94851410921702089521E030E0B8
:1029600002C0220F331F8A95E2F78091990290915D
:102970009A02822B932B0E9471140895CF93DF93B8
:10298000EC010E943E0D0E946114D0938302C0931B
:102990008202DF91CF91089580918B04882319F0F2
:1029A000815080938B04209187043091880440915A
:1029B000890450918A0460918B0470918C048091F9
:1029C0008D0490918E040E946313089580918B046E
:1029D000833018F48F5F80938B04209187043091AB
:1029E00088044091890450918A0460918B0470910D
:1029F0008C0480918D0490918E040E94631308953D
:102A0000E7E8F4E085E0808311828FEF828388E736
:102A100083831482A1EDB2E012968C9112978360A9
:102A200012968C93758125E030E04FEF58E760E017
:102A3000868197810E94631308959091AB0492FB65
:102A4000222720F9281779F080FB92F99093AB04A4
:102A50006091AA047091AB0484E090E00E949031F0
:102A600082E00E9497140895A4E0B0E0EAE3F5E163
:102A70000C942530409157025091580260915902B0
:102A800070915A022FB7F8948091AD049091AE04E2
:102A9000A091AF04B091B0042FBF841B950BA60B7F
:102AA000B70B11E084369105A105B10570F10E94C4
:102AB000F1096E5F7F4F8F4F9F4F69837A838B83BE
:102AC0009C838091150190911601855A9D4F4091EC
:102AD000140150E04530510510F044E050E0BE01D3
:102AE0006F5F7F4F0E94453182E090E00E948C2F03
:102AF000182F882351F00E940508609357027093A5
:102B000058028093590290935A02812F2496E3E051
:102B10000C944130ABE0B0E0E0E9F5E10C942630F4
:102B200088E0E7E8F4E0DE01119601900D928A95C5
:102B3000E1F78091D1029091D202A091D3028987CE
:102B40009A87AB872B8540916F02509170026091FC
:102B50007102709172023FB7F8948091AD04909128
:102B6000AE04A091AF04B091B0043FBF841B950B9D
:102B7000A60BB70B84369105A105B10510F42223ED
:102B800019F180911D0190911E01855A9D4F409130
:102B90001C0150E04C30510510F04BE050E0BE01FC
:102BA0006F5F7F4F0E94453183E090E00E948C2F41
:102BB000882369F00E94050860936F027093700289
:102BC00080937102909372021092D30281E02B964F
:102BD000E2E00C944230EF92FF921F93CF93DF9389
:102BE00000D000D00F92CDB7DEB77B0190E080E03F
:102BF0000E948C2F182F882309F487C04091070169
:102C000050E04115510511F041E050E0609108019C
:102C100070910901655A7D4FCE0105960E9445319C
:102C200040915302509154026091550270915602A6
:102C30002FB7F8948091AD049091AE04A091AF04A9
:102C4000B091B0042FBF841B950BA60BB70B843635
:102C50009105A105B10540F48CE592E00E94800643
:102C60009D81891709F451C081E090E00E948C2F6A
:102C700081111AC010E080914F0290915002A091F2
:102C80005102B0915202F70180839183A283B383F2
:102C9000812F0F900F900F900F900F90DF91CF9199
:102CA0001F91FF90EF90089540910F0150E0453043
:102CB000510510F044E050E0609110017091110155
:102CC000655A7D4FCE0101960E9445318CE592E018
:102CD0000E9480069D818913CDCF0E9405086093D4
:102CE0005302709354028093550290935602898147
:102CF0009A81AB81BC8180934F0290935002A09344
:102D00005102B093520211E0B6CF80915C029091D3
:102D10005D02A0915E02B0915F0289839A83AB83CA
:102D2000BC831111E4CFA7CFA8E0B0E0EAE9F6E157
:102D30000C94263066EE7EEF90E080E00E949031A9
:102D400060E082E090E00E94723181E090E0909338
:102D500083028093820261E083E090E00E947231FE
:102D600060E074E184E090E00E94903160E086E0F1
:102D700090E00E9472316FEF87E090E00E94723124
:102D800040E050E0BA0188E090E00E94843160E0C9
:102D900084E290E00E94723160E087E190E00E945E
:102DA000723160E08CE090E00E94723160E08DE072
:102DB00090E00E94723119821A821B821C821D824D
:102DC0001E821F82188648E050E068E170E0CE0164
:102DD00001960E94623140E050E0BA0180E290E04A
:102DE0000E94843140E050E0BA018FE090E00E9400
:102DF000843140E050E0BA0183E190E00E948431E8
:102E00002896E2E00C9442301F920F920FB60F9278
:102E100011242F933F934F935F936F937F938F93DF
:102E20009F93AF93BF93EF93FF938091E10082FF55
:102E300009C08091E20082FF05C08091E1008B7F94
:102E40008093E1008091DA0080FF24C08091D80057
:102E500080FF20C08091DA008E7F8093DA0080911D
:102E6000D90080FF9DC080E189BD82E189BD09B4A0
:102E700000FEFDCF81E08093BE048091B1048111FA
:102E800009C00E9497060E9438078091E200846082
:102E90008093E2008091E10080FF17C08091E20002
:102EA00080FF13C08091E2008E7F8093E2008091CA
:102EB000E20080618093E2008091D800806280937C
:102EC000D80019BC85E08093BE048091E10084FFA6
:102ED0002BC08091E20084FF27C080E189BD82E1A0
:102EE00089BD89B5982F917080FFFBCF8091D80064
:102EF0008F7D8093D8008091E1008F7E8093E100E8
:102F00008091E2008F7E8093E2008091E2008160F8
:102F10008093E2008091BF04882309F447C084E0D5
:102F20008093BE048091BE048091E10083FF27C09E
:102F30008091E20083FF23C08091E100877F80932E
:102F4000E10082E08093BE041092BF048091E10012
:102F50008E7F8093E1008091E2008E7F8093E2007B
:102F60008091E20080618093E20042E060E080E0D6
:102F70000E9406078091F00088608093F000FF9126
:102F8000EF91BF91AF919F918F917F916F915F91E1
:102F90004F913F912F910F900FBE0F901F9018955A
:102FA00019BC1092BE041092B10474CF8091E3005A
:102FB00087FD93E09093BE04B5CF78941F921FB61F
:102FC0001F9211248F939F93AF93BF938091AD0471
:102FD0009091AE04A091AF04B091B0040196A11DF0
:102FE000B11D8093AD049093AE04A093AF04B09351
:102FF000B004BF91AF919F918F911F901FBE1F9002
:1030000018959C014FB7F8948091AD049091AE044F
:10301000A091AF04B091B0044FBF821B930B0895F1
:103020002FB7F8948091AD049091AE04A091AF04B5
:10303000B091B0042FBF08950E9410189C01909188
:103040009E0480919F04982B21F030939B04209341
:103050009A049091A0048091A104982B21F03093C0
:10306000990420939804E091A604F091A704309766
:1030700049F082E080939C040680F781E02D8CE982
:1030800094E0099508951092420280914C018823A2
:1030900039F18091AA0487FF23C0E8EDF1E08EE1C9
:1030A000DF011D928A95E9F790E080E00E94950883
:1030B00090E080E00E947008109219020E944D0E6C
:1030C00086E0ECE9F4E0DF011D928A95E9F71092C1
:1030D000950410929604109297040E941C1808956B
:1030E000E0EDF1E086E0DCCFAAE2B0E0EAE7F8E16B
:1030F0000C94253080EC94E02091F100FC012193A8
:10310000CF01F4E0883C9F07B9F78091C104833078
:1031100009F470C0B8F4813009F447C0823009F472
:10312000B1C08091E80083FF7EC28091C00490917D
:10313000C1049A3008F077C2E92FF0E0E55FFD4C5A
:103140000C947B308A3009F48CC08B3009F46FC04A
:10315000893039F78091C004813219F78091C40415
:103160009091C5040297E8F68091E800877F8093EC
:10317000E8008091E80082FF38C09091F3008091D0
:10318000F200029731F48091F100813011F0863025
:1031900021F48091F1008093B3048091E8008B7753
:1031A0008093E8000E94E706BCCF8091C004813A7A
:1031B00009F0B7CF8091E800877F8093E800809185
:1031C000C4049091C504892B61F468E084EB94E019
:1031D00070E00E9493078091E8008B778093E8006D
:1031E000A0CF60E090E080E0F3CF8091BE04811139
:1031F000C0CF97CF8091C004813A09F092CF8091DF
:10320000C4049091C504892B09F08BCF8091E8000C
:10321000877F8093E8008091E80080FFFCCF809159
:103220004C018093F1008091E8008E77B9CF8091B6
:10323000C004813209F075CF8091C4049091C50417
:10324000892B09F06ECF8091E800877F8093E8009A
:103250000E94E7068091C20480934C010E944318AB
:1032600060CF8091C004813209F05BCF8091E8008B
:10327000877F8093E8000E94E7068091C3048093D3
:10328000B2044FCF8091C004813A09F04ACF8091B7
:10329000E800877F8093E8008091E80080FFFCCF02
:1032A0008091B204BECF803899F0823809F0BBC15A
:1032B0008091C4048F70873008F0B5C18093E90015
:1032C0008091EB0085FB882780F91092E90006C009
:1032D0008091BC049091BD04911182609091E800AE
:1032E000977F9093E8008093F1001092F100809115
:1032F000E8008E7794C1882309F482C1823009F0F6
:1033000092C18091C204811185C18091C4048F70E3
:103310002FEF280F263008F086C18093E900209116
:10332000EB0020FF77C1933031F48091EB00806295
:103330008093EB006FC19091EB0090619093EB0054
:1033400021E030E001C0220F8A95EAF72093EA00DD
:103350001092EA008091EB008860EACF811163C18E
:103360001091C2041F778091E3008078812B8093B5
:10337000E3008091E800877F8093E8000E94E706E1
:103380008091E80080FFFCCF8091E300806880930B
:10339000E30082E0111183E08093BE0444C18058B1
:1033A000823008F040C18091C2049091C3048C3DEA
:1033B00023E09207A1F583E08A838AE289834FB7ED
:1033C000F894DE01139620E03EE051E2E32FF0E0B6
:1033D00050935700E49120FF03C0E295EF703F5FE8
:1033E000EF708E2F90E0EA30C0F0C7968D939D93DA
:1033F0002F5F243159F74FBF8091E800877F80937A
:10340000E8006AE270E0CE0101960E949307809185
:10341000E8008B778093E80006C1C096E7CF409123
:10342000C4045091C504292F33272330310509F4F2
:1034300044C078F52130310509F46FC08BE390E08A
:10344000E3EDF6E02230310509F0EDC02091E8000F
:10345000277F2093E8002091C6043091C70482178B
:10346000930708F49C0140E02115310509F064C080
:10347000411162C08091E80082FDC9CF8091BE04F5
:10348000882329F2853019F28091E80083FFF2CF7A
:10349000BECF21323105A9F12232310509F0C3C076
:1034A0004115510509F443C04130510509F0BBC035
:1034B00086EB90E0E9EDF5E0C9CF992781309105E1
:1034C000C1F0009759F0029709F0ADC0E0E2F7E0D3
:1034D000E4918E2F90E0E0E2F7E007C0E0E4F7E04F
:1034E000E4918E2F90E0E0E4F7E0009709F49BC0B0
:1034F000ADCFEEE2F7E0E4918E2F90E0EEE2F7E060
:10350000F4CF4115510571F04130510509F08BC0E0
:1035100089E090E0EEEFF6E099CF82E190E0EEE016
:10352000F7E094CF89E090E0E5EEF6E08FCF84E419
:1035300090E0EFE8F6E08ACF8091BE04882309F49A
:1035400066CF853009F463CF8091E80083FD5FCFBB
:103550008091E80082FD8ECF8091E80080FF84CFCB
:103560009091F3008091F2002115310519F0883017
:10357000910550F041E0089709F040E08091E800A3
:103580008E778093E80070CF44914093F10031969C
:10359000215031090196E8CF803809F044C080916C
:1035A000E800877F8093E8008091BF048093F1005A
:1035B0009ECE811138C01091C2041230A0F58091C6
:1035C000E800877F8093E8001093BF040E94E7061D
:1035D000112311F084E005C08091E30087FDFACF4C
:1035E00081E08093BE0442E061EC81E00E94060726
:1035F00042E261EC82E00E9406078091BE0413C0A3
:103600008091C204813079F481E0933009F080E048
:103610008093BD041092E9008091E800877F809339
:10362000E8000E94E7068091E80083FF0AC08091CD
:10363000E800877F8093E8008091EB0080628093B0
:10364000EB00AA96E3E00C9441301F920F920FB664
:103650000F9211242F933F934F935F936F937F9318
:103660008F939F93AF93BF93CF93DF93EF93FF938A
:10367000D091E900DF708091EC00C82FC17080FD0F
:10368000C0E81092E9008091F000877F8093F000FD
:1036900078940E9474181092E9008091F00088607C
:1036A0008093F000CD2BCF70C093E900FF91EF9194
:1036B000DF91CF91BF91AF919F918F917F916F914A
:1036C0005F914F913F912F910F900FBE0F901F90E0
:1036D00018950E9443182FEF84E39CE0215080400E
:1036E0009040E1F700C0000088E19AE00FB6F8943E
:1036F000A895809360000FBE90936000FFCF40912B
:103700009E049091A0042091A104662309F469C04D
:10371000942B922B20919F04922B31F098E0909360
:10372000950491E0909396048D3C41F40E94ED083D
:10373000819580939F040E941C1808958E3C19F473
:103740000E94ED08F6CF8F3C31F40E94ED08819580
:1037500080939E04F0CF803D19F40E94ED08F8CFCD
:10376000893D29F40E94CB088093A004E4CF8A3DD0
:1037700021F40E94CB088195F7CF8B3D31F40E9454
:10378000CB0881958093A104D6CF8C3D19F40E947B
:10379000CB08F8CF9FE2980F983070F4815D990BB9
:1037A00021E030E001C0220F8A95EAF780919D0464
:1037B000822B80939D04BFCF8D3D31F4809197047F
:1037C000816080939704B7CF8E3D21F48091970458
:1037D0008260F7CF8F3D09F0AECF8091970484606F
:1037E000F0CF8D3C59F480919F0487FF0DC010925B
:1037F0009F0441110BC01092950408C08E3C81F4C7
:1038000080919F0418169CF3442381F08091A004BA
:103810009091A104892B09F08ECF109296048BCF42
:103820008F3C49F447FFF0CF10929E0480919F0493
:103830008111ECCFE0CF803D19F41416ACF3E4CF46
:10384000893D29F4191604F71092A004DDCF8A3DB2
:1038500019F497FFD9CFF8CF8B3D29F427FFD4CFA8
:103860001092A104D1CF8C3D19F41216CCF3CCCF19
:103870009FE2980F983090F4815D990B21E030E041
:10388000B90102C0660F771F8A95E2F7CB018095D8
:1038900090919D04892380939D04B6CF8D3D31F492
:1038A000809197048E7F80939704AECF8E3D21F454
:1038B000809197048D7FF7CF8F3D09F0A5CF809140
:1038C00097048B7FF0CF882381F19CEF980F913A7A
:1038D00028F40E9411080E944D0E089590E2980F5E
:1038E000983050F4877091E001C0990F8A95EAF7FB
:1038F000892F0E94390CEFCF9BE5980F933028F465
:1039000090E080E00E949508089598E5980F9B311B
:1039100028F490E080E00E947008089593E3980FE7
:10392000933118F460E00E947F1B0895CF93C82F55
:103930008823B1F18CEF8C0F813AA0F580914C0176
:10394000882301F18091AA0487FF1CC0EC2FE69523
:10395000E695E695F0E0EA52FE4F828190E04C2F2A
:10396000477021E030E002C0220F331F4A95E2F792
:1039700082239323892B79F08C2F0E9411080E94B7
:103980004D0E09C0E0EDF1E08191C817A9F381E087
:10399000E63DF807C9F78C2F0E943C080E944D0EA7
:1039A000CF91089580E28C0F883068F4C77021E0D1
:1039B00030E001C0220FCA95EAF780914202822BC3
:1039C00080934202EBCFEBE5EC0FE33040F4F0E004
:1039D000ED5AFE4F808190E00E949508E1CFE8E526
:1039E000EC0FEB3150F4F0E0EE0FFF1FEA5AFE4F00
:1039F000808191810E947008D3CF83E38C0F833143
:103A000078F661E08C2F0E947F1BCACF0F931F9323
:103A1000CF93DF93C62FD42F022FFC0185818823FB
:103A2000A9F0609304050E941018909303058093F9
:103A30000205C77081E001C0880FCA95EAF70E94AD
:103A4000A60EDF91CF911F910F91089580910405EB
:103A5000681335C080910205909103050E940118FA
:103A6000883C910560F510E21D0FCD17B9F080E29A
:103A70008C0F883040F4C77081E001C0880FCA9570
:103A8000EAF70E949F0E183048F481E09D2F97704E
:103A900001C0880F9A95EAF70E94A60E802F0E9417
:103AA000961C802F0E94631C183058F6D77081E056
:103AB00001C0880FDA95EAF70E949F0EC2CFC77047
:103AC00081E001C0880FCA95EAF7F6CF8091A20481
:103AD000882319F00E94101808950E94F109CB0163
:103AE0000895609187046695669570E04BE050E01C
:103AF00089E391E00E942B31892B19F481E08093B6
:103B0000D2020E94661D9093CC028093CB028091DA
:103B1000D30284608093D30208959091870490FF2C
:103B20003AC09370811138C094609093870480915B
:103B3000D30281608093D302662391F020918704A1
:103B4000309188044091890450918A0460918B04DB
:103B500070918C0480918D0490918E040E94631367
:103B6000609187046695669570E04BE050E089E3CC
:103B700091E00E942B31892BB9F00E94220981E04B
:103B80008093CE0220E040918A0460918904809164
:103B900088040E94891308958B3210F0986AC5CF6B
:103BA000880F880F982BC1CF0E94711DE8CF80919C
:103BB000870486958695815009F48AE261E00E9427
:103BC0008D1D089580918704869586958F5F8B3231
:103BD00008F081E061E00E948D1D089590918704B6
:103BE00090FF09C096959695981728F0961718F4A7
:103BF0000E94E21D089561E00E948D1D0895B0E0CD
:103C0000A0E0E5E0FEE10C941E308C01FC01848113
:103C1000882309F467C021E040815181628173816A
:103C200095810E94620DEC01F8019581992309F4B8
:103C300083C481818093A50280818093A40280E265
:103C400080933101D093A302C093A2029E0130520F
:103C50002115304238F4F8018681807F09F45EC076
:103C6000FE010AC09E01305421153041C8F4F8010C
:103C70008681807FFE0109F0FF27ED33F10528F4EE
:103C8000E455FF4FE491E0933101FE01E851FC4718
:103C9000E730F10508F042C0EB5EFD4C0C947B3040
:103CA0009E013A9521153F41D8F29E01205A324596
:103CB0002032310550F3FE01E0CF26E241EE61EE05
:103CC000C8010E94061D80911702877059F0F80103
:103CD0008581882339F08091AB0482FF03C082E0A4
:103CE0000E949714CDB7DEB7EAE00C943A3027E291
:103CF00045EE65EEE5CF26E241EE60EEE1CF27E24C
:103D000045EE64EEDDCF26E241EE62EED9CF27E24A
:103D100045EE66EED5CF28E241E0EBCF10920405E8
:103D20009E0130572332310508F020C484E090E032
:103D30000E945C319093AB048093AA04FE01E15091
:103D4000F047E232F10520F4E45EFD4C0C947B3048
:103D50008091AA0481608093AA0495C08091AB04ED
:103D600088608093AB048FC08091AA048260F3CFF7
:103D70008091AA048460EFCF8091AA048860EBCF81
:103D80008091AB048160EDCF8091AB048260E9CF7C
:103D90008091AA048061DFCF8091AA048062DBCF8A
:103DA0008091AA048064D7CF0E9443188091AA040E
:103DB0008068D1CF8091AA048C60CDCF8091AB0474
:103DC0008360CFCF8091AA048E7FC5CF8091AB0452
:103DD000877FC7CF8091AA048D7FBDCF8091AA0431
:103DE0008B7FB9CF8091AA04877FB5CF8091AB0438
:103DF0008E7FB7CF8091AB048D7FB3CF8091AA0423
:103E00008F7EA9CF8091AA048F7DA5CF8091AA042F
:103E10008F7BA1CF0E9443188091AA048F779BCFFC
:103E20008091AA04837F97CF8091AB048C7F99CF38
:103E30008091AA0482FB992790F921E0922790FBB8
:103E400082F990FB83F987CF8091AB04982F9095EE
:103E500091708E7F892B90FB81F983CF9091AA047A
:103E6000892F8F7B96FF806476CF0E9443189091B4
:103E7000AA04892F97FB87F980586DCF61E08EE007
:103E800090E00E9472316091AA047091AB0484E0CA
:103E900090E00E9490310E94431815CF60E0EFCF70
:103EA0009091AA04892F8F7E94FF806154CF9091C6
:103EB000AA04892F8E7F90FF81604DCF9091AB0433
:103EC000892F877F93FF88604CCF85E35FC3809104
:103ED000F601811104C089E20E94110859C385E3EB
:103EE000FBCF992309F434C3C3303CE7D30709F46B
:103EF000F7C008F0DAC0C1159CE7D90709F4E3C0A0
:103F0000C130DC4709F4F2C0F8018581C081D1815C
:103F1000882309F4F9C0CE010E94710CF82E682F95
:103F2000CE010E94E50CBE018F2D0E94FC0A0E946A
:103F30001B0BD82FC92FA82EF801C580B680B294CC
:103F40003FE0B32280911702877009F1EC2CCC205E
:103F5000F9F0892F807F803469F080E28D0F8830FE
:103F6000B0F0892F807E803229F4F1E0FD1778F4DB
:103F7000BB2069F08091AB0482FF09C082E00E94FF
:103F80009714809117028770EE24E3948111E12C3D
:103F9000DC2ED2942FE0D2222BE02D1508F419C18B
:103FA000ED2DF0E0E25CFD4C0C947B3080918704B9
:103FB00080FF1EC0282F2E7F209387043091880415
:103FC0004091890450918A0460918B0470918C0413
:103FD00080918D0490918E040E9463130E942209A7
:103FE0008091D30281608093D3020E94140F6BCE24
:103FF00081608093870461E0869586950E948D1D7F
:1040000062CE47ED5DE162EE7DE10E941B095BCE71
:1040100042EE5DE167ED7DE1F8CF4DE454E167E507
:1040200074E1F3CF47E554E16DE474E1EECF43E38F
:1040300054E160E474E1E9CF40E454E163E374E106
:10404000E4CF49E154E166E274E1DFCF46E254E1B6
:1040500069E174E1DACF4CEC54E166EE74E1D5CF5E
:1040600046EE54E16CEC74E1D0CF61E081E0C6CF64
:1040700065E082E00E94EE1D26CE68E086E0FACF81
:104080006EE089E0F7CF64E18FE0F4CF67E185E18E
:10409000F1CF61E088E1B2CF62E289E1EBCF61E08C
:1040A00083E2ACCF6AE285E2E5CFCB35FCE7DF0700
:1040B00049F1CC352CE7D207D9F0CA35DC4709F0F5
:1040C00023CF81E01CC00E9443188FEF94E3ECE003
:1040D00081509040E040E1F700C000000E94F407EA
:1040E0006FEF7FEF90E080E00E9490310E94691BAB
:1040F0008091AB0482FB882780F991E089270E9498
:104100001D1502CF80E0FBCFCE010E94B20CF82E2D
:104110000ACF3C2F3F70F32EC07F19F0F29490EF3E
:10412000F922CC20B9F0FF2069F080E28D0F8830B1
:1041300010F0A11009C080914202F82AF0924202C8
:104140000E944D0E8D2F43C080911902F82AF092E3
:104150001902F6CF8D2F0E94631CFF20D1F1D05E93
:10416000D83010F0A11004C08F2D0E94390C06C069
:10417000F09480911902F822F09219020E944D0EDB
:1041800028C08C2F8F70F82EC07FC03219F0F294A7
:1041900080EFF822AA2059F091E0A91609F479C01D
:1041A000CC2009F485C0BB2009F447C0CBCF809157
:1041B000AB0482FD3EC0CC20B1F1FF2039F08091EC
:1041C0004202F82AF09242020E944D0E80E00E94C4
:1041D000961C2D2D2850330B2430310510F40E94ED
:1041E000BA08EE20A9F08091170280FD11C0F801F5
:1041F00015828695869586950E94AE14C8010E9408
:10420000FF1D809117028695869586950E948514DC
:1042100020E0F80140815181628173818481958120
:104220000E94620D5FCD80E00E94631CFF2089F236
:104230009BCFCC20A1F0B11004C08F2D0E94A60E00
:10424000C8CFE1E0BE12C5CF809118029F2D982300
:10425000F91609F4BECFF82AF0921802BACFB110BD
:10426000B8CF8F2D0E949F0E909118028F2D892319
:1042700029F08F2D80958923809318028091F70172
:104280009F2D982309F4A5CFF094F822F092F7011E
:10429000A0CFCC2029F0F5E0FB1508F49ACFCDCFC4
:1042A00024E02B1508F495CF8F2D0E949F0E91CFFF
:1042B000BB20D1F339E3A31209C08FEF97EEE3E0FF
:1042C00081509040E040E1F700C000008D2F0E9437
:1042D000631C7FCF8C2F86958695837069F0813023
:1042E00009F077CF8D2F9C2F9370C11002C080E012
:1042F00090E00E9470086DCF8D2F9C2F9370C1109D
:1043000002C080E090E00E94950863CF6C2D8D2F55
:104310000E947F1B5ECF8C2F837009F03FC0C110BD
:1043200058CF4D2F429546954770440F440F2D2F7F
:104330002F7030E0042E02C0220F331F0A94E2F7E0
:1043400090E080E0D4FF09C08FE090E002C0880FC9
:10435000991F4A95E2F780959095C695C695C370CA
:10436000C23099F078F44091820250918302C130BA
:1043700039F0822B932B842395230E94BE1429CFDE
:10438000242B352B822B932BF8CF822B932B209130
:1043900082023091830282279327EFCF8695CC202B
:1043A00011F08C2F8170882309F413CF4D2F429583
:1043B00046954770440F440F2D2F2F7030E0042E88
:1043C00002C0220F331F0A94E2F790E080E0D4FF8E
:1043D00009C08FE090E002C0880F991F4A95E2F76C
:1043E00080959095C695C695C370C23099F078F4C3
:1043F0004091990250919A02C13039F0822B932B4F
:10440000842395230E947114E4CE242B352B822B18
:10441000932BF8CF822B932B2091990230919A0203
:1044200082279327EFCFCF70CC2029F08C2F0E94CA
:10443000AE148D2F03CF8D2F0E949F0E8C2F0E94C4
:104440008514C7CE8D2FF2EFAF1699F1FA1570F0E3
:1044500020EFA216D1F031EFA31691F0CC2009F491
:104460005BC0B1106FCE8C2F8F7127C093EFA91650
:1044700039F1E4EFAE12F2CF8091AB0482FD2EC091
:104480008C2F8F71CC20D9F218C0CC2069F0F4E0C9
:10449000FB1508F49ECECF7181E090E002C0880F3A
:1044A000991FCA95E2F7B8CF25E02B1508F491CEF5
:1044B000F2CF8C2F8F71C110C2CF0E94AE1489CE63
:1044C00090E080E0CC2009F49DCFCF7181E090E0B6
:1044D00002C0880F991FCA95E2F794CFCC2089F0CB
:1044E000CF718C2F0E94AE148091AB0482FF07C065
:1044F00038E0C39FC00111248360809317028C2F82
:10450000DCCF81E00E94971481E08B1508F061CE2A
:1045100082E00E9497145DCEBB2059F0893309F0E8
:10452000D5CE9FEFE7EEF3E09150E040F040E1F7A9
:10453000CBCE8C2F8F7183CFFE01E851FC47E73043
:10454000F10508F4A9CBC6312CE7D20709F4BFCC9A
:10455000809142028272FE01E052F847E531F10596
:1045600008F0D2CCE65BFD4C0C947B30C631FCE706
:10457000DF0709F0B6CC809142028A7A91E009F413
:1045800090E09093F6018111A0CC89E20E943C0852
:104590000E944D0E98CBCF93DF9380911602807FBF
:1045A00009F04DC080911502882309F448C0E091BC
:1045B00001055091C804C0911102D0911002609180
:1045C00012027091130247E05E17C9F18E2F90E03E
:1045D000E49FF0011124E753FB4F2481222391F142
:1045E000489FF001499FF00D1124DF01A753BB4FF5
:1045F00011962C9111972C1325C02C912D1322C0AC
:1046000015962C91159721111DC012962D913C9154
:10461000261B370B283C3105A8F4809116028F70B9
:10462000806180931602E153FB4F80818F7080611F
:10463000808380E192E00E94FF1D0E94670CDF9161
:10464000CF910895FC013196E770BECFA4E1B0E0B0
:10465000ECE2F3E20C941C308C0186E0F801DE0100
:104660001F9601900D928A95E1F7F8018481E5800B
:1046700090E1A92E92E0B92E90911402911128C0D8
:10468000882319F1EE20F1F0C8010E941B0DF82ECD
:104690008823C1F087E0F801D50101900D928A9539
:1046A000E1F780911402813031F4809110029091F1
:1046B00011020E94A50C0E94CB228F2D6496ECE083
:1046C0000C943830C8010E94FF1DFF24F394F5CFED
:1046D000D080C18082809380F090150220911202D8
:1046E00030911302A401421B530BFF2009F4D9C0DF
:1046F000483C510508F092C08823F9F290911102CC
:1047000080911602282F207F09F056C0C91214C0CC
:1047100090911002D91210C0E11048C08F708061D2
:104720008093160280E192E00E94FF1D80911602A4
:10473000F8018683F12CC1CFE11038C06C2D8D2D8E
:104740000E9461066C2D8D2D0E946106E82E81115C
:10475000F1CFDF86C88A8F8598890E94A50C292F02
:1047600022952F70243058F49F70223088F09923BE
:1047700099F0F8019681907F79F4FE2C9ECF2A5F04
:104780002F70223068F0C8010E94FF1DEF2CF5CF7A
:10479000992311F0882389F3805E883070F3F3CF7A
:1047A000803F58F3815F833070F7E7CF8091160226
:1047B000816080931602BECFC91207C0909110028B
:1047C000D91203C0EE2009F48DC0C8010E941B0D50
:1047D000882309F477CFEE2009F474CF8091160274
:1047E000803288F020911002309111023987288799
:1047F0009B868A86909114029C871D868E87CE01A7
:1048000008960E94FF1D87E0F801A0E1B2E0019048
:104810000D928A95E1F70E94CB2257CF9091160214
:10482000292F207F51F480E192E00E94FF1D87E054
:10483000F50111928A95E9F77DCF882309F43DCFE0
:10484000809111028C1110C080911002D8120CC0FE
:10485000E1100AC09683C8010E94FF1D87E0F501A0
:1048600011928A95E9F729CFC8010E941B0D882370
:1048700009F428CFEE2009F425CF8091160280326A
:1048800010F220911002309111023A8329839C8208
:104890008B82909114029D831E828F83CE0101969C
:1048A000B0CF483C5105D0F6882309F40ECFFE2C3A
:1048B000EE2009F407CF809111028C1120C0809165
:1048C0001002D8121CC08091160280FD0FC0982FD4
:1048D000907F61F08683903F31F0982F907F905FBA
:1048E0008F70892B8683C8010E94FF1D87E0F80125
:1048F000A0E1B2E001900D928A95E1F7DECEC80109
:104900000E941B0D81117FCF8091160281608093E0
:104910001602C8010E94FF1DD0CEABE1B0E0E3E972
:10492000F4E20C9424304E8B5F8B688F798F8A8FE2
:104930009B8F192F9111109219021D8A86E0FE019A
:104940007696DE011F9601900D928A95E1F70A8D09
:10495000002341F021E04F85588969897A89C8018F
:104960000E94620D0B8B1C8B87E0FE013F96DE01DF
:10497000189601900D928A95E1F7CE0108960E9453
:10498000262381110CC087E0FE013896DE011196C6
:1049900001900D928A95E1F78C8581110BC017E08B
:1049A000809101059091C804891331C06B96E4E0B1
:1049B0000C9440302091C80430E0C9010196877002
:1049C0009927409101054817190699F097E0929FA1
:1049D000D001939FB00D1124A753BB4FFE01319618
:1049E00001900D929A95E1F78093C8040E94670C9C
:1049F000D6CF0E9443181092C8041092010587E098
:104A0000E0E1F2E0DF011D928A95E9F7C8CF819FCE
:104A1000C001112487539B4F0E942623882331F223
:104A20008091010590E00196877099278093010598
:104A3000B7CFA3E1B0E0EFE1F5E20C941B308E01BB
:104A4000045F1F4F88E0D8011D928A95E9F78EE830
:104A5000C82E81E0D82EF12CE12CAA24A394B12CED
:104A600028E9822E21E0922EF60181916F018F3F7D
:104A700009F442C0F894E82FE295EF70F0E021A12C
:104A80008F70A50102C0440F551F8A95E2F7CA0135
:104A9000922F982B91A392A18095892382A3789439
:104AA00000C0E2E9F1E0712C31E021912F3F09F4DF
:104AB00098C0A22FA295AF70B0E090968C9190E034
:104AC0002F7002C0959587952A95E2F780FD89C0E1
:104AD000832F782A330F8E169F0639F7F601319708
:104AE00080818F3F11F00E94DA0950EA5A95F1F760
:104AF000F801EE0DFF1D70828FEFE81AF80AA4E0AE
:104B0000EA16F10409F0B0CF48E050E0B80188E7B8
:104B100092E00E943831009741F028E0F801A8E7C0
:104B2000B2E001900D922A95E1F70091810210E028
:104B30000B571D4F892B09F456C081E08093470223
:104B40000E9410189093460280934502F12CE09049
:104B5000A204EE2009F4A1C019821A821B821C82D1
:104B6000809173028A3008F062C04BEE55E1BE01BD
:104B70006F5F7F4FC8010E94F911882309F47CC040
:104B800044E355E1BE016F5F7F4FC8010E94F911F8
:104B9000882309F471C04AE855E1BE016F5F7F4F79
:104BA000C8010E94F911882309F466C010927302AB
:104BB0008091800290E044E050E0BE016F5F7F4F43
:104BC0008B579D4F0E94383121E020934E02892B54
:104BD00009F044C0E12C8E2D8F296396EDE00C94F2
:104BE000373080E076CFF0904702FF2009F4AECF57
:104BF00080914502909146020E940118059708F4A1
:104C0000A5CF44E050E068E772E0C8010E94383167
:104C1000892B59F084E0E8E7F2E0D80101900D9289
:104C20008A95E1F71092470292CFF12CFBCF809149
:104C30004802909149020E940118843F914008F077
:104C400094CF80914E02882329F284E0FE013196B0
:104C5000DF011D928A95E9F710924E02E0918002E1
:104C6000F0E0EB57FD4F89819A81AB81BC81808355
:104C70009183A283B383AFCF809173028F3F31F0D2
:104C80008F5F809373028A3008F492CF0E941018CD
:104C90009093490280934802D4CF84E0F801ACE5B8
:104CA000B2E001900D928A95E1F78CE592E00E94C6
:104CB000800680935B028090600290906102A090D9
:104CC0006202B090630280914A0290914B02A091DF
:104CD0004C02B0914D0288169906AA06BB06B1F0A7
:104CE00080924A0290924B02A0924C02B0924D02E6
:104CF0000E940508861A970AA80AB90A80927402C7
:104D000090927502A0927602B09277028BE0E4E670
:104D1000F2E0DE01119601900D928A95E1F7809103
:104D2000640286958695D0906502C0906602B09028
:104D3000670200916D0210916E0210926E021123B3
:104D400009F449CF10FF0BC029819091870420FFFF
:104D50001AC091609093870460E00E948D1D11FF3E
:104D600006C020E04B2D6C2D8D2D0E94891312FF63
:104D700004C00023A9F00E94711D13FF2CCF81E015
:104D80008093CE0228CF9E7F909387040E942209B1
:104D90008091D30281608093D3020E94140FDFCFF1
:104DA0000E942209EACFA6E0B0E0E9EDF6E20C9419
:104DB00024300E9410188C0180914302909144028B
:104DC0008017910781F019821A820E941018682FAB
:104DD00049815A81792F80E090E00E948D241093C0
:104DE0004402009343022696E4E00C9440301F9264
:104DF0001FB61F9211248F939F93AF93BF938091FF
:104E0000AC04811113C08091AD049091AE04A091C7
:104E1000AF04B091B0044196A11DB11D8093AD04C3
:104E20009093AE04A093AF04B093B004BF91AF9140
:104E30009F918F911F901FBE1F901895CDB7DEB721
:104E400060970FB6F894DEBF0FBECDBF85B7806800
:104E500085BF85B7806885BF84B7877F84BF0FB65D
:104E6000F894A8958091600088618093600010920A
:104E700060000FBE80E890E00FB6F8948093610068
:104E8000909361000FBE88ED99E09093CD018093DF
:104E9000CC010E9497060E9438078091E20084604E
:104EA0008093E20078948091BE048823A1F0109151
:104EB000E9001F709091EC00892F817090FD80E8CF
:104EC000182B1092E9008091E80083FD0E9474186D
:104ED0001F701093E90082E084BD93E095BD9AEFC6
:104EE00097BD80936E00109274021092750210921A
:104EF00076021092770288EC90E01091E300111F87
:104F00001127111F61F4AFE3BCE91197F1F700C05D
:104F10000000019791F70E9497061092BE0410932B
:104F2000A2041093A30410932401112309F472C066
:104F3000109247018BE1809348010E94A02E80913E
:104F400024018091240194E0811190E090938102EA
:104F500084E0891B8093800284E90E94DA0986E656
:104F60000E94DA0987E90E94DA0986EC0E94DA09D0
:104F700002E911E0F80181918F018F3F11F00E9449
:104F8000DA09F1E008391F07A9F788E0E5E8F2E05F
:104F9000DF01282F1D922A95E9F7E8E7F2E0DF010B
:104FA0001D928A95E9F790E080E00E945C31863E90
:104FB0009E4F11F00E94941682E090E00E944E31C4
:104FC00080938D0284E090E00E945C319093AB046A
:104FD0008093AA040E941925EFEFF6E721E0E15043
:104FE000F0402040E1F700C000000E9419258091A8
:104FF000A304E4E08111E0E0F0E0EB57FD4F808195
:1050000081FF0EC06FEF7FEF90E080E00E94903153
:105010000E94F4078BE180934701809348018FCF72
:1050200083E090E00E944E3190E00E94BE142091F7
:10503000990230919A028091820290918302822B90
:10504000932B0E943E0D0E9461148091A204811155
:1050500039C182E08093C60280E8809305050E94F2
:105060005A2D6BE070E08FE393E00E942C128823AE
:10507000E9F18091C60265E070E081FD25C18AE317
:1050800093E00E942C12882389F16DE070E088E2A1
:1050900093E00E942C12882349F10E940508605A6F
:1050A00075418F4F9F4F60938F047093900480934E
:1050B000910490939204E8E0F5E080E092E0DF0153
:1050C0009C011D9221503040E1F7F0930F07E093CF
:1050D0000E078FEF9FEF909307058093060581E001
:1050E00080939404809393041092C7028091840269
:1050F00081117CC090E080E00E945C31863E9E4F32
:1051000021F00E9494160E94001588E090E00E9411
:1051100056314B015C0184E290E00E944E31282F11
:1051200030E040E050E060E070E080E090E000E2DD
:105130000E949030282939294A295B292093870425
:10514000309388044093890450938A0460938B04BD
:1051500070938C0480938D0490938E048091D3027D
:1051600083608093D3022C7F89F50E94001588E02C
:1051700090E00E9456316B017C0184E290E00E9435
:105180004E31282F30E040E050E060E070E080E0F9
:1051900090E00E949030B22FA32FF42FE52F5B01F7
:1051A00097018601BC29A12BFE29E32BB09387042C
:1051B000A0938804F0938904E0938A0460938B049D
:1051C000B0928C0480938D0490938E040E942909E0
:1051D0000E9422098091870480FF05C060E08695C7
:1051E00086950E948D1D81E0809384028091A204A7
:1051F000811102C00E94A32E21E048E76FEF80E8F2
:105200000E94891385E291E09093A7048093A604FD
:10521000DD24D3946AE0462E512C612C712C8091B0
:10522000BE0400E112E1853009F48AC00E9419250C
:105230000EE812E055E8E52E52E0F52ED701F80110
:1052400091918D9122E0E639F20709F483C0981715
:10525000B9F33090A204C12CD701BD907D01F801B3
:1052600081908F018B1429F18B24A12C9924939484
:10527000882D8921B1F03320A1F0AF82C8860E9429
:1052800010189A878987DB8691E08B2D892109F494
:1052900090E09C874F81588569857A858B850E942F
:1052A0008D24A394990CF6E0AF12E2CFF801319768
:1052B000B082C39428E0C212CFCF0E94F109CC245F
:1052C000C3944DC080E0C6CE85E393E0DACE8091F2
:1052D000BE04843031F10E9456121092AC0488E171
:1052E00090E0A0E40FB6F894A895809360000FBEFC
:1052F000A093600083B7817F846083BF83B78160A0
:1053000083BF7894889583B78E7F83BF0FB6F89458
:10531000A895809160008861809360001092600081
:105320000FBE8091BD04882359F00E941925E5E83D
:10533000F2E08191811199C3B2E0ED38FB07C9F722
:105340008091BE04853009F4C2CF0E9443180E94A8
:10535000BA086CCF98137DCF0E94D326C12C8091C0
:10536000D202882309F464C08091D102E0918704BD
:10537000E695E695E81BE093CD02823009F090C0F7
:10538000F0E0E55AFC4FE4910E2F10E045EEE42EDC
:1053900041E1F42E8091CE02882361F01092CE027A
:1053A0000E94661D9093CC028093CB021092D00293
:1053B0001092CF020E94661DE091CB02F091CC02C8
:1053C0009C012E1B3F0B2F3F3F4790F520919802E9
:1053D0002223B1F010929802209196023091970208
:1053E000821B930B8F3F9F4758F4205D3A483093C0
:1053F0009702209396028091D30288608093D30213
:10540000A090CF02B090D002E00FF11FF093CC0239
:10541000E093CB028BEC92E0F70109958091CF02EB
:105420009091D002892B21F4AB2811F0D0929802F0
:1054300080919404882309F400C18091C80290915E
:10544000C9020E940118C29708F4D7C00E94101820
:105450009093C9028093C80288E095E090930F076B
:1054600080930E078091A204882309F40EC280E87D
:1054700093E00E94070E8091990290919A020E94F7
:105480003E0D813009F4BBC1882309F475C0823018
:1054900009F4B8C1833009F4B8C18FE593E06EC058
:1054A000863059F4F0E0E85AFC4FE4910E2F10E0FA
:1054B00035EDE32E31E1F32E6DCF893061F4E695C1
:1054C000F0E0EB5AFC4FE4910E2F10E02EE2E22EBA
:1054D00021E1F22E5FCF8F3061F4E695F0E0EE5AD5
:1054E000FC4FE4910E2F10E093EAE92E90E1F92EA3
:1054F00051CF853159F4F0E0E15BFC4FE4910E2F80
:1055000010E08EE1E82E80E1F82E44CF08E210E0B2
:10551000FCE9EF2EFFE0FF2E883109F43BCF833208
:1055200049F4EDE4F3E005911491B4E8EB2EB1E118
:10553000FB2E30CF8432C9F000ED17E071E2E72E88
:1055400079E0F72E853209F025CF8E2F63E00E9497
:105550004D30E92FF0E0E65BFC4FE4910E2F10E0B8
:10556000A9E9EA2EA2E1FA2E15CF04EF11E0EFE54A
:10557000EE2EEFE0FE2E0ECF88E793E00E94470E5E
:105580008091A502805D0E94870D8EE893E00E94C5
:10559000070E8091A402805D0E94870D8AE893E047
:1055A0000E94070E8090A2029090A30220912F01EA
:1055B000309130018216930609F02AC12091A10290
:1055C000203209F025C1EBE9F2E08F0181918032B0
:1055D000E1F3F80101900020E9F79F012150310922
:1055E00079010E151F0508F44AC188E893E00E946E
:1055F000070E809131010E94870D809106059091E0
:105600000705892B09F046C1809193048823A9F0EE
:105610000E94050800918F0410919004209191043C
:1056200030919204601B710B820B930B6F3F7F4F85
:105630008F4F9F4710F40E945612C1100E947112A2
:1056400086E0ECE9F4E0DE01119601900D928A9576
:10565000E1F7C0909D0410919E0400919F04E0909A
:10566000A004F090A10410929E0410929F04109246
:10567000A0041092A104812F802B09F445C08091D1
:105680009A0490919B040E9401189C0190919504AA
:10569000992309F40AC225313105B0F19F3F19F071
:1056A0009F5F90939504112359F00E94ED089FEF9E
:1056B00011160CF491E0899F802D112480939E0493
:1056C000002359F00E94ED0891E010160CF09FEFB6
:1056D000899F802D112480939F0480919E048823AC
:1056E00099F0B0909F04BB2079F00E940D098823A7
:1056F00009F4AFC180939E048B2D0E940D0988236D
:1057000009F4AAC180939F048E2D8F2909F445C006
:1057100080919804909199040E9401189C019091A5
:105720009604992309F4BCC121353105B0F19F3F9E
:1057300019F09F5F90939604EE2059F00E94CB08D9
:105740009FEF1E140CF491E0899F802D112480930B
:10575000A004FF2059F00E94CB0891E01F140CF028
:105760009FEF899F802D11248093A1048091A00434
:10577000882399F0E090A104EE2079F00E940D09B1
:10578000882309F46CC18093A0048E2D0E940D091A
:10579000882309F467C18093A10480919D04C812F5
:1057A00017C080919E04882311F0181311C0209116
:1057B0009F04222311F002130BC09091A10499239E
:1057C00011F09F1105C03091A004332309F463C187
:1057D0000E941C1886E0FE013196ACE9B4E001900D
:1057E0000D928A95E1F70E94BA089091CA02891732
:1057F00009F415CD8093CA020E94050810CD82E7F6
:1058000093E0BCCE8CE693E0B9CE85E693E0B6CECD
:105810009092300180922F0120E22093A102B12CBE
:10582000A12C1092A0025BE9252E52E0352E66E9EC
:10583000E62E62E0F62E8101C501B401A3019201BA
:105840000E94D831605D603319F42016310631F0C2
:1058500081149104A104B10409F460E2D801149602
:105860006C93C501B401A30192010E94D831490192
:105870005A0101501109E016F106F1F6A4CED80143
:105880008D918D010E94870DACCE80E993E00E943E
:10589000070EB3CE80919404882309F4B5CE80918D
:1058A000C7028111B1CE0E9471122091060530917C
:1058B00007052115310509F4A7CE80E041E050E04D
:1058C000282E312C5A01082E02C0AA0CBB1C0A94A7
:1058D000E2F7B50162237323672B11F48F5FF0CFDA
:1058E0009091C60290FF9BC0880F880F880F80930D
:1058F000340110923701895F8093350183E08093F2
:10590000380124E630E047E050E062E371E088E7E8
:105910000E94FA2D892B09F077CE95E0220C331CDA
:105920009A95E1F78091C60280FF8BC0E6EAF2E02B
:1059300080E2DF011D928A95E9F7ECE9F1E0F88B4E
:10594000EF8788E9882E81E0982E07E0AF85B88937
:105950004D91B88BAF87F40181914F01820D932D4A
:10596000911D9C01285F3A4F3E872D87E42FF0E080
:10597000EA55FD4F30E020E0F02EF21A11E0022E41
:1059800001C0110F0A94EAF76D857E8590E0DB0176
:105990008D91BD0181234F2D491B4770E42E042EAC
:1059A000000C550BB82F01C0BB0FEA94EAF7EB2EA1
:1059B0005195419551094770552701C086954A95E3
:1059C000EAF7E82A8081E82AE0829F5F9830F9F6BA
:1059D0002F5F3F4F31962830310571F6EF85F889FA
:1059E000E05AF14009F0B2CF04E610E020E230E0E6
:1059F00046EA52E060E488E70E941B2E892B09F0FA
:105A000003CEC5018095909520910605309107053C
:105A1000822393239093070580930605F5CD829505
:105A2000880F8076809334019101369527953695BD
:105A3000279520933701815E8093350120933801AB
:105A400060CFA101485F5A4F04E610E020E230E049
:105A5000D1CFD0929E0450CED0929F0455CED092FA
:105A6000A00493CED092A10498CE09BD19BD09B46B
:105A700000FEFDCF8091D8008F7D8093D80080916B
:105A8000E00082608093E0008091E00081FDFCCF27
:105A90000E94431855CC822B892B09F49BCE98CEBB
:105AA0002B30310508F045CE78CE2B30310508F08B
:105AB000F7CD2ACE1092B9008CE08093B8000895FB
:105AC000B0E0A0E0E6E6FDE20C941D30B82EEB015C
:105AD0000E9410186C01EE24E394F12CC431D1051E
