:100000000C9467060C9484060C9484060C94C72FF9
:100010000C9484060C9484060C9484060C94840638
:100020000C9484060C9484060C94B8170C94D91B79
:100030000C94B0270C9484060C9484060C948406CB
:100040000C9484060C9484060C9484060C94840608
:100050000C9484060C9491180C9484060C948406D9
:100060000C9484060C9484060C9484060C948406E8
:100070000C9484060C9484060C9484060C948406D8
:100080000C9484060C9484060C9484060C948406C8
:100090000C9484060C9484060C9484060C948406B8
:1000A0000C9484060C9484060C948406003600FF9D
:1000B000FFFF00000000003615FFFFFF00000000FA
:1000C000003655FFFFFF000000000036D5FFFFFFA0
:1000D000000000000036AAFFFFFF0000000000360D
:1000E00080FFFFFF00000000202020206162636489
:1000F00065666768696A6B6C6D6E6F707172737438
:1001000075767778797A3132333435363738393015
:10011000524542545F2D3D5B5D5C233B27602C2E96
:100120002F2020202B0014001A00080015001700B3
:10013000290004221621072409280A00E1001D00D5
:100140001B000600190005000000000000002152FD
:1001500022522A003100130012000C0018001C006B
:10016000340033320F310E340D380B00E500380007
:10017000370036001000110000000000000024527B
:100180002C00280001001E001F002000210022007A
:100190000100010001000100010001000100010057
:1001A000010001000100010000000000000001004A
:1001B0000100010001002700260025002400230083
:1001C0000100010001000100010001000100010027
:1001D00001000100010001000000000000002352A6
:1001E000010001000100350031022D000000000077
:1001F00001001E221F212024212822020100350295
:1002000000000000000000000000000000000100ED
:1002100001000100000030002F0038002E02000015
:1002200038022732263125342438230201003002D7
:100230002F022E002D02000000000000000001002F
:100240000100010001003A003B003C003D003E007F
:100250000100010001000100010001000100440053
:100260004500680069006A0000000000000001000D
:1002700001000100455243004200410040003F00A0
:1002800001000100010001000100010001006F00F8
:100290006E006D006C006B000000000000000100AB
:1002A000010001000100000000000000000000004B
:1002B00001000100010001000100010001007A00BD
:1002C00000007B007C007D00000000000000235245
:1002D000010001000100000000000000000000001B
:1002E000010001004F0052005100500001000000C9
:1002F0004D004B004E004A000000000000000100CD
:1003000001000100007C000000000000000000006F
:10031000207821782378257827782978000022789A
:100320002478267828782A780000000000004052BF
:100330004052405201000000000000000000000098
:100340003378327830782D782C782B7800000000C4
:10035000000000000000000000000000000000009D
:100360000000000000DA0281FFD9F1DB20A4A62EF4
:10037000AF00A0C0D30000A1C8D30000AED580A8B4
:100380001F408D142000DE00D400CA00C000B6005B
:10039000AC0000001E0F0500047F3F1F6432146490
:1003A0003214783C1E1E140A05556E6465660041C1
:1003B000646A757374005261697365004C6F776588
:1003C000720044656661756C74004C617965723ABF
:1003D00020003A002C206B00780080818283848585
:1003E000868788898A8B8C8D8E8F9091929394A02A
:1003F000A1A2A3A4A5A6A7A8A9AAABACADAEAFB075
:10040000B1B2B3B4C0C1C2C3C4C5C6C7C8C9CACBE0
:10041000CCCDCECFD0D1D2D3D40000010101010187
:1004200001010101020202020202020202030303AD
:10043000030303030304040404040404050505057D
:10044000050606060606070707070708080808093D
:100450000909090A0A0A0B0B0B0C0C0C0D0D0D0EE9
:100460000E0E0F0F0F10101111111212131314147E
:10047000151516161717181819191A1A1B1B1C1DF3
:100480001D1E1E1F2020212222232424252626274C
:100490002829292A2B2C2D2D2E2F3031323233347E
:1004A00035363738393A3B3C3D3E3F404142434484
:1004B00045464748494A4C4D4E4F50515354555666
:1004C00058595A5B5D5E5F616264656668696B6C12
:1004D0006D6F7072737577787A7B7D7E808283858D
:1004E00087888A8C8E8F91939596989A9C9EA0A2CD
:1004F000A3A5A7A9ABADAFB1B3B5B7BABCBEC0C2D7
:10050000C4C6C9CBCDCFD1D4D6D8DBDDDFE2E4E79A
:10051000E9EBEEF0F3F5F8FAFDFFFFAA7F55402274
:1005200023252628292A2C2D2F3032333536383AE8
:100530003B3D3E4042434547494A4C4E505153553E
:1005400057595A5C5E6062646668696B6D6F71735F
:100550007577797B7D7F81838587898A8C8E909260
:100560009496989A9C9E9FA1A3A5A7A8AAACAEAF6B
:10057000B1B3B4B6B8B9BBBCBEBFC1C2C3C5C6C7B0
:10058000C9CACBCCCDCED0D1D2D2D3D4D5D6D7D761
:10059000D8D9D9DADADBDBDBDCDCDCDCDCDDDDDDA9
:1005A000DDDCDCDCDCDCDBDBDBDADAD9D9D8D7D7A5
:1005B000D6D5D4D3D2D2D1D0CECDCCCBCAC9C7C652
:1005C000C5C3C2C1BFBEBCBBB9B8B6B4B3B1AFAE90
:1005D000ACAAA8A7A5A3A19F9E9C9A989694929036
:1005E0008E8C8A89878583817F7D7B79777573710E
:1005F0006F6D6B6968666462605E5C5A59575553EB
:1006000051504E4C4A4947454342403E3D3B3A38A3
:1006100036353332302F2D2C2A2928262523220047
:10062000AF00AE05010902A10185020901A1000583
:100630000919012908150025019508750181020590
:1006400001093009311581257F9502750881060958
:10065000381581257F950175088106050C0A380239
:100660001581257F950175088106C0C005010980A7
:10067000A101850319012AB700150126B7009501CC
:1006800075108100C0050C0901A101850419012A1A
:10069000A002150126A002950175108100C0050178
:1006A0000906A1018506050719E029E715002501BE
:1006B0009508750181020507190029EF150025012C
:1006C00095F0750181020508190129059505750147
:1006D0009102950175039101C005010906A101056B
:1006E0000719E029E7150025019508750181029594
:1006F00001750881010507190029FF150026FF0073
:1007000095067508810005081901290515002501C0
:10071000950575019102950175039101C009023B90
:1007200000020100A0FA0904000001030101000910
:10073000211101000122440007058103080001097D
:10074000040100010300000009211101000122B68B
:1007500000070582032000011201000200000008CA
:10076000534601000100010200010C0343006F0029
:1007700072006E0065000000100366006F006F00DD
:100780007300740061006E0000000403090400009F
:10079000000000003E5B4F5B3E003E6B4F6B3E0037
:1007A0001C3E7C3E1C00183C7E3C18001C577D57AC
:1007B0001C001C5E7F5E1C0000183C180000FFE758
:1007C000C3E7FF00001824180000FFE7DBE7FF0085
:1007D00030483A060E00262979292600407F050573
:1007E0000700407F05253F005A3CE73C5A007F3E0A
:1007F0001C1C0800081C1C3E7F0014227F221400D1
:100800005F5F005F5F0006097F017F0000668995DA
:100810006A0060606060600094A2FFA29400080417
:100820007E04080010207E20100008082A1C080002
:10083000081C2A0808001E10101010000C1E0C1EA8
:100840000C0030383E383000060E3E0E0600000028
:100850000000000000005F0000000007000700002B
:10086000147F147F1400242A7F2A120023130864A3
:100870006200364956205000000807030000001CA3
:10088000224100000041221C00002A1C7F1C2A007B
:1008900008083E08080000807030000008080808BA
:1008A00008000000606000002010080402003E51B3
:1008B00049453E0000427F400000724949494600D8
:1008C0002141494D33001814127F1000274545453A
:1008D00039003C4A49493100412111090700364994
:1008E00049493600464949291E000000140000000D
:1008F00000403400000000081422410014141414B5
:1009000014000041221408000201590906003E416A
:100910005D594E007C1211127C007F494949360016
:100920003E41414122007F4141413E007F494949CA
:1009300041007F09090901003E41415173007F08D0
:1009400008087F0000417F4100002040413F010036
:100950007F08142241007F40404040007F021C027B
:100960007F007F0408107F003E4141413E007F0927
:10097000090906003E4151215E007F091929460000
:1009800026494949320003017F0103003F404040AE
:100990003F001F2040201F003F4038403F006314AD
:1009A000081463000304780403006159494D4300AF
:1009B000007F4141410002040810200000414141F4
:1009C0007F00040201020400404040404000000358
:1009D000070800002054547840007F284444380021
:1009E000384444442800384444287F003854545440
:1009F000180000087E0902001824241C78007F08D3
:100A00000404780000447D4000002040403D000088
:100A10007F102844000000417F4000007C047804DF
:100A200078007C08040478003844444438007C187A
:100A300024241800182424187C007C0804040800CE
:100A400048545454240004043F4424003C404020B3
:100A50007C001C2040201C003C4030403C004428CE
:100A6000102844004C9090907C004464544C440006
:100A70000008364100000000770000000041360801
:100A800000000201020402003C2623263C00000074
:100A90000000000000000000000000000000C0E0B6
:100AA000F0F8F81800C0F0FCFEFFFFFFFFFFFFFFAB
:100AB0007E00000000000000000080C0E0E0E0E0F8
:100AC000E0E0E0E0C0800000000080C0E0E0E0E0A6
:100AD000E0E0E0E0C080000000E0E0C0C0E0E0E076
:100AE000E00000E0E0C0C0E0E0E0E0E0C080000046
:100AF000000080C0E0E0E0E0E0E0E0E0C080000076
:100B0000000000000000000000000000E0F0F0F035
:100B1000E0ECEEF7F37020007C7C7C7E007E7E7E35
:100B20007F7F7F000080C0E07E5B4F5BFEC00000E7
:100B3000C000DCD7DEDEDED7DC00C0000000000035
:100B400000000000000000000000000000000000A5
:100B500000000000000000F8FCFEFFE000FFFFFFC7
:100B6000FFFFFF80FFFFFFFFFFFFFFFFFF1F0701EA
:100B7000000000000000000000FFFFFF81000000F7
:100B800000000081C3C3C30000FFFFFF810000001D
:100B900000000081FFFFFF0000FFFFFF01000000D9
:100BA000000000FFFFFF010000000001FFFFFF0049
:100BB00000FFFFFF9D1C1C1C1C1C1C9DDFDFDF00B9
:100BC0000000000000000000000000000F1F3F7F39
:100BD0007F7F7F7F3F1E0C001F1F1F3F003F3F3F57
:100BE0007F7F7F00307B7F7830202030787F3B0014
:100BF00003000F7F0F0F0F7F0F00030000000000A6
:100C000000000000000000000000000000000000E4
:100C100000000000000000030F1F3F3F3F3F1F1F69
:100C20003F3F7F7F7F3F3F1F3F7F7F7F7F7C787885
:100C3000381C0F0000000000000001030707070731
:100C40000707070703010000000001030707070764
:100C5000070707070301000000070707000000005F
:100C6000000000070707000000000000070707005A
:100C70000000010307070707070707070301000034
:100C80000000000000000000000000000000000064
:100C90000000000000000000000000000000000054
:100CA0000000000000000000000000000000000044
:100CB0000000000000000000000000000000000034
:100CC00000000000000000000000000000001124EF
:100CD0001FBECFEFDAE0DEBFCDBF27E0A6ECB1E06C
:100CE00001C01D92AF30B207E1F711E0A0E0B1E022
:100CF000E0E8F6E602C005900D92A63CB107D9F7F0
:100D00000E94D7270C94EA320C940000482F2091BF
:100D100000059091C70457E0291302C080E00895B0
:100D200030E0529FF001539FF00D1124E853FB4F28
:100D30008181681306C08081481303C085818111B9
:100D4000EECF2F5F3F4F2770E7CFFC01AC014C5F28
:100D50005F4F8FEF91E32191822728E030E087FFFA
:100D600009C0880F892721503109C9F7E417F50711
:100D700091F70895880FF7CFE8EDF0E080818E7F3E
:100D800080831092E2001092DA001092E100A0EE4F
:100D9000B0E08C9181608C9380818F77808319BCC7
:100DA000A7EDB0E08C918E7F8C9380818F7E8083C5
:100DB0001092B00408952091E4003091E50095E68A
:100DC000A9012091EC00822F817020FF06C0809144
:100DD000E80080FF06C080E008952091E80022FD31
:100DE0001AC08091BD04882389F0853089F08091F4
:100DF000EB0085FD0FC02091E4003091E500421723
:100E00005307F9F29150E1F684E0089582E00895E5
:100E100083E0089581E008958091BF0487FF13C0A7
:100E20008091E80082FF06C08091E8008B77809374
:100E3000E80004C08091BD048111F2CF0895809133
:100E4000BD048823D9F38091E80080FFF8CF80911A
:100E5000E8008E77ECCF982F9093E900242F762F1F
:100E600050E0891731F07091EC002091ED00509125
:100E7000F00021FD07C09F5F973071F78093E90074
:100E800081E008953091EB003E7F3093EB0030918C
:100E9000ED003D7F3093ED003091EB0031603093F9
:100EA000EB007093EC002093ED005093F000209144
:100EB000EE0027FDE0CF80E00895B0E0A0E0E3E69B
:100EC000F7E00C940131C8EDD0E088818F7E8883F3
:100ED000E7EDF0E080818160808384E082BF81E083
:100EE0008093B00488818E7F888302EE10E0F80141
:100EF00010821092DA0081EEC82ED12CF6011082F9
:100F000088818F77888388818068888388818F7DB6
:100F1000888319BC1092BD041092BE041092BC04C8
:100F20001092BB0490EEE92EF12CF70180818B7FAB
:100F3000808388818160888342E060E080E00E9455
:100F40002B07F60180818E7F8083F801808181608C
:100F50008083808188608083F70180818E7F808399
:100F6000888180618883CDB7DEB7E8E00C941D31BD
:100F7000FC018091C5049091C60486179707A0F0E4
:100F80006115710529F49091E8009E779093E8002F
:100F900090E06115710551F4911108C08091E8004D
:100FA00082FF34C080E00895BC01F2CF8091BD047F
:100FB0008823C1F18530C1F18091E80083FD30C004
:100FC0008091E80082FDEACF8091E80080FFE1CFC8
:100FD0008091F3002091F200382F6115710519F00E
:100FE0002830310558F091E02830310509F090E0C3
:100FF0002091E8002E772093E800CBCF8191809359
:10100000F100615071092F5F3F4FE7CF8091BD0420
:10101000882341F0853041F08091E80083FFBECF06
:1010200081E0089582E0089583E008958091B204FC
:10103000089587E797E7909301088093000888E177
:101040009AE00FB6F894A895809360000FBE909335
:101050006000FFCF2FB7F8946091AC047091AD049D
:101060008091AE049091AF042FBF089590914C01F0
:101070009923D1F09091A90497FF16C0E82FE69527
:10108000E695E695EE31E0F4F0E0E053FE4F282FD0
:10109000277081E090E001C0880F2A95EAF78095DB
:1010A0009281892382830895EAECF1E0919189137A
:1010B00003C0DF0111971C9291E0E03DF907B1F701
:1010C000089590914C019923C1F09091A90497FF44
:1010D00014C0E82FE695E695E695EE31F8F4F0E0D9
:1010E000E053FE4F877021E030E001C0220F8A9567
:1010F000EAF78281822B82830895AAECB1E0EFEFB8
:1011000090E02D91821751F0EF3F19F4211101C0A9
:10111000E92F9F5F9630A9F7EF3F09F408950E2E4F
:10112000000CFF0BE853FE4FE6CFA3E0B0E0EBE985
:10113000F8E00C9407312091A7043091A8042817F7
:101140003907A1F09093A8048093A704E091A50427
:10115000F091A604309751F024E029839B838A8381
:101160000084F185E02DCE01019609952396E2E0F9
:101170000C942331A3E0B0E0E0ECF8E00C940731EC
:101180002091A3043091A40428173907A1F090936B
:10119000A4048093A304E091A504F091A6043097E1
:1011A00051F023E029839B838A830084F185E02D1D
:1011B000CE01019609952396E2E00C9423318091AB
:1011C000A104882359F0E091A504F091A60430977A
:1011D00029F00190F081E02D0995089580E00895AF
:1011E0008091960480FD16C081FD16C082FD16C058
:1011F000809195048823A1F0883280F428E0829FB2
:10120000C001112468E270E00E944831862F672BEC
:1012100039F0089582E0089584E0089588E0089503
:1012200081E008958091960480FD14C081FD14C072
:1012300082FD16C080919404882381F08E3180F461
:1012400020E5829FC00111246EE170E00E944831C8
:10125000862F089584E1089588E2089588E008952E
:1012600080E50895282F35EB2303C001112497FF53
:1012700004C080589109892F089580589F4FFBCF53
:10128000FA01811101C0FB01099508950895EFEC61
:10129000F2E01182828184608283089521E030E04F
:1012A000A90102C0440F551F8A95E2F7CA01209197
:1012B000D202662361F0822B8093D2028091D10208
:1012C00080618093D10281E08093C6020895809569
:1012D0008223F2CF80918604982F9C7F61F48370E3
:1012E00084608093860480918904893718F088E7A8
:1012F0008093890408958C3AB0F38370886AF1CFA3
:10130000AF92BF92DF92EF92FF920F931F93CF9312
:10131000DF93182F062FE901493708F048E7E42F3B
:10132000F0E0E65EFB4F011110C0E4915E2F4E2FFE
:101330004983E8835A83DF91CF911F910F91FF90EA
:10134000EF90DF90BF90AF900895202F30E0449150
:10135000D42EE42EF12C56E0159FC0011124EFEF9E
:10136000F0E0BF010E94E330812F90E0880F991FC9
:1013700055E5569FD001579FB00D11248A1B9B0B3A
:10138000982F990F890F5F01A21AB30AAE9CD00162
:10139000AF9CB00DBE9CB00D11245B2F089F800147
:1013A0001124012F11275F01A01AB10AAE9C800100
:1013B000AF9C100DBE9C100D11245F01A81AB1083E
:1013C000A29EC001A39E900DB29E900D1124892F64
:1013D0009927E81BF90BEE9DC001EF9D900DFE9D36
:1013E000900D1124E92F62307105A1F050F46115C0
:1013F000710509F49DCF6130710581F0EB2F512FFC
:1014000097CF6430710569F080F06630710509F49A
:101410008FCFF4CFE42F4B2F592F8ACFE42F412FBA
:1014200087CFEB2F542F492F83CF4B2F5D2DE12FEB
:101430007FCF80E00895F894E82FE295EF70F0E018
:1014400031A1282F2F7081E090E001C0880F2A95EC
:10145000EAF7982F9095932391A392A1892B82A3C9
:10146000789408950F931F938091A104882329F005
:101470000E942A081F910F9108950E942A08009146
:101480007102109172022091730230917402600F08
:10149000711F821F931FEECF9091A90492FF10C07D
:1014A00041E0282F2471243009F040E031E0282F5A
:1014B0002871283009F030E0431711F02CE0822722
:1014C00093FF10C041E0282F2471243109F040E03F
:1014D00031E0282F2871283109F030E0431711F04E
:1014E0002CE082273091AA0430FF10C051E0282F51
:1014F0002171213009F050E041E0282F2871283077
:1015000009F040E0541711F029E0822731FF10C0A4
:1015100041E0282F2171213109F040E031E0282FEE
:101520002871283109F030E0431711F029E08227B3
:1015300094FD877E089582389105B9F1B0F4813326
:10154000910509F47DC048F48932910509F46DC014
:101550008A32910509F47BC008958533910509F419
:101560005FC08933910509F10895833E9105D9F152
:1015700038F4803E910529F1823E910579F1089574
:10158000863E9105D9F1873E910509F43EC0843E1F
:10159000910541F52091AA0421FF24C08091A9045E
:1015A00084FD19C087EE90E008952091A90423706E
:1015B00009F05AC02091AA0423FF14C089E290E0E8
:1015C00008952091A90420FD38C03091AA0430FF6D
:1015D00009C024FF43C090E080E008952091A90451
:1015E00022FDF7CF08952091A90422FD3AC0309141
:1015F000AA0430FD39C024FFF5CFEDCF2091A90416
:1016000023FFF0CF24FDE7CFCDCF2091A90423FD08
:101610002EC03091AA0431FFEECF84EE90E0089501
:101620002091A90425FFDECFC9CF2091A90425FD73
:1016300021C02091AA0423FFD5CF89E390E0D2CF27
:101640002091A90426FFCECF8AE290E00895209150
:10165000A90426FFC7CF81E390E0089583EE90E0D0
:10166000089582EE90E0089580EE90E0089586EE71
:1016700090E0089585E390E00895972F7830B8F4CE
:101680006630A8F48630B0F470E026E0929F600DDA
:10169000711D1124FB0190E3899FE00DF11D1124C0
:1016A000EE0FFF1FEC5DFE4F85919491089580E051
:1016B00090E0089581E0FCCF1F93CF93DF930E94C9
:1016C0009B0AEC01C11580E5D807F0F5C11580E44F
:1016D000D80708F09CC0C03ED10520F5CD3CD1050F
:1016E00008F082C0C83AD10578F4C53AD10508F0AF
:1016F00073C0C130D10519F1209709F1C430D1056B
:10170000F0F4D0E0C0E01BC0C33CD105D0F7C85A0C
:10171000D0E0CC0FDD1FC05BDE4F0990D881C02D1B
:10172000D4640DC0C11580E2D80708F0D1C0C1153E
:1017300081E0D80708F05AC0C83ED10510F7CE01A5
:10174000DF91CF911F910895C03682E5D80718F533
:10175000C03482E5D80708F06BC0C03282E5D807F4
:1017600008F05FC0C11582E5D80708F497C02C2F98
:101770002695269580E2289F900111248C2F837056
:10178000C1E0D0E002C0CC0FDD1F8A95E2F7C22B8A
:10179000D32BDD68D4CFC03A82E5D80760F4C038D7
:1017A00082E5D80708F459C0CF71D0E0DC2FCC27F0
:1017B000C46FD06AC4CFC03C82E5D80708F462C0C9
:1017C000C03E82E5D80708F09CCFDC2FCC27CC2781
:1017D000DF71C06FD06AB3CFC55AD0E0C35BDE4FB4
:1017E000C881D0E0D064ABCFD065A9CF8D2F0E9447
:1017F0004C0A182FCE0199270E949B0AC12FD0E0D6
:10180000DC2FCC27CC27DF71C82BD92B98CFCE016A
:1018100099270E949B0ACC27DF70C82BD92BD06A4E
:101820008ECFCF71D0E0DC2FCC27C16FD06A87CFAD
:101830002C2F26952695277080E2289F9001112451
:101840008C2F8370C1E0D0E002C0CC0FDD1F8A95E1
:10185000E2F7C22BD32BDC6872CF2C2F269526956E
:10186000277080E2289F900111248C2F8370C1E0A3
:10187000D0E002C0CC0FDD1F8A95E2F7C22BD32B3C
:10188000DA685DCF8C2F8F710E944C0AC82FD0E090
:10189000DC2FCC27CC27DF71D06251CF8C2F8F71FA
:1018A0000E944C0A55E0D695C7955A95E1F7CF703E
:1018B000D0E0DC2FCC27282F30E084FF05C044E0A7
:1018C000220F331F4A95E1F7C22BD32BD06937CFB4
:1018D0008D2F8F710E944C0A182FCE0199270E94DC
:1018E0009B0AC12FD0E0DC2FCC27CC27DF71C82B7F
:1018F000D92BD2CF809590913C02982390933C02B3
:10190000089580913C0290911302892B90911202CC
:10191000992391F0892B90914C01992371F090912A
:10192000A90497FF0AC09EE122ED31E040E091500A
:1019300040F4411110921202089596E02AEC31E031
:10194000F5CFF90151919F01552389F34F5FEFCFF7
:10195000809100059091C704981301C008958F5F8E
:101960008770FACFB0E0A0E0E8EBFCE00C94003127
:101970007C01009194021091950280913D0290911A
:101980003E02082B192BCFE0D0E0CC24C394D12CFD
:10199000BC2EC6010C2E02C0880F991F0A94E2F7D4
:1019A00080239123892B49F4219790F7B12C8B2D1B
:1019B000CDB7DEB7E9E00C941C31B7018C2F0E9443
:1019C0003D0B0E945C0B019779F3F1CFCF93DF932E
:1019D000EC010E94B20CBE010E943D0B0E945C0B08
:1019E000DF91CF910895983078F5863068F5E82F2B
:1019F000F0E086E0989FE00DF11D11249E2F977076
:101A000083E0F695E7958A95E1F7EE0FFF1FEE0F5D
:101A1000FF1FEE50FE4F50E040E080E0219130E0AB
:101A2000092E02C0369527950A94E2F721703327D4
:101A3000042E01C0220F0A94EAF7822B4F5F5F4FFA
:101A40004430510559F7089580E00895983098F58D
:101A5000863088F5E82FF0E086E0989FE00DF11DD4
:101A600011248E2F877041E001C0440F8A95EAF758
:101A700083E0F695E7958A95E1F7EE0FFF1FEE0FED
:101A8000FF1FEE50FE4F30E020E070E05191DF018B
:101A90001197CB01022E02C0969587950A94E2F722
:101AA000817081958527842385278C932F5F3F4FF5
:101AB0002430310559F70895CF93DF93EC0161E0AD
:101AC000009709F0682F617080E00E944E09D09362
:101AD0003E02C0933D02DF91CF910895FC01248125
:101AE0002223C1F0808191810E94E60C92959F7023
:101AF000963091F058F4925F9F70923058F4803F86
:101B000019F030F4883E30F481E008959A5FF4CF04
:101B1000843FD1F380E00895883EB0F3813FD1F750
:101B2000F3CFA6E0B0E0E7E9FDE00C94063149838D
:101B30005A8349815A819923A1F0222391F0CA0145
:101B40000E94B20C182F682F89819A810E94260D5D
:101B500069817A81812F0E943D0B2696E3E00C94E7
:101B60002231CA010E94F30C182FF2CFCF93DF93DA
:101B7000EC0160E0009721F0BC01769567956170FB
:101B800081E00E944E0960E0209731F0BE01769519
:101B9000679576956795617082E00E944E0960E0D6
:101BA000209739F0BE0123E0769567952A95E1F7F5
:101BB000617083E00E944E0960E0209739F0BE0119
:101BC00094E0769567959A95E1F7617084E00E94BC
:101BD0004E0960E0209739F0BE0185E07695679563
:101BE0008A95E1F7617085E00E944E09CE01DF9190
:101BF000CF9108950E94B60D909395028093940220
:101C0000089521E030E002C0220F331F8A95E2F7E9
:101C10002095309580919402909195028223932390
:101C20000E94FA0D08959091110280958923809366
:101C30001102282F277069F4891759F09091AA048E
:101C400092FF07C08695869586950E94010E109298
:101C50001102089521E030E002C0220F331F8A955F
:101C6000E2F78091940290919502822B932B0E942F
:101C7000FA0D0895CF93DF93682F81E06A3019F051
:101C80006D3031F480E00E94C80EDF91CF9108954D
:101C900080910D0790910E0726E0FC01A7E0B7E0C8
:101CA00001900D922A95E1F7603E08F458C026E0B5
:101CB000FC0111922A95E9F7C0910D07D0910E070A
:101CC00046E050E0BE0187E097E00E9419329E0195
:101CD00027503540892B41F1C90145E096958795FC
:101CE0004A95E1F741E050E0BA0102C0660F771F64
:101CF0008A95E2F7CB016091050570910605862B68
:101D0000972BB9016B5F7F4FE5E076956795EA9574
:101D1000E1F702C0440F551F6A95E2F7842B952B1B
:101D200090930605809305052A5F3F4F4091040577
:101D3000642F70E0C9010E94E330481B463010F464
:101D4000240F311D211572E0370710F030E020E03C
:101D5000295F3A4F30930E0720930D0796CFF6E098
:101D60006F9FB00111246257784F46E050E00E9407
:101D70000332A2CFCF93DF93EC01FE018491811156
:101D800003C0DF91CF9108950E943A0E2196F5CFBE
:101D9000CF93382FE0910D07F0910E07E750F540F3
:101DA00020910405622F70E0CF010E94E330281BD0
:101DB000822F332361F066E00E942E31C82FC1507C
:101DC00010F4CF91089580E20E943A0EF8CF9F015F
:101DD000280F311D2115324018F080E0F0E0E0E0DE
:101DE0008E0F9F2F911D895F9A4F90930E078093BE
:101DF0000D07E7CF0E94BA0E81E00E94C80E089539
:101E000080914C01882359F18091A90487FF27C054
:101E10000E94810C8093D10140E250E064E172E0C5
:101E200080ED91E00E941932892BC1F080E2E0ED53
:101E3000F1E0A4E1B2E001900D928A95E1F7E09122
:101E4000A504F091A604309749F086E08093D00174
:101E50000480F581E02D80ED91E0099508950E94C0
:101E6000810C8093C80148E050E064E372E088ECA4
:101E700091E00E941932892B89F388E0E8ECF1E0C7
:101E8000A4E3B2E001900D928A95E1F7E091A504F8
:101E9000F091A604309711F30280F381E02D88ECD5
:101EA00091E0DBCF882321F00E947A0C0E94000F82
:101EB0000895882339F090913C02982B90933C022E
:101EC0000E94000F08950F931F93CF93DF938B0110
:101ED000EA019091BD04943061F58093E9008FEFA1
:101EE0009091E800815095FD06C095ED9A95F1F727
:101EF00000008111F5CF8091E80085FF1AC00E9493
:101F0000DB06811111C08091E80085FD06C080913B
:101F1000E8008E778093E800F2CFF80181918F017D
:101F20008093F100219779F78091E8008E77809374
:101F3000E800DF91CF911F910F91089543E050E0A9
:101F4000BC0182E00E94630F089546E050E0BC01AE
:101F500082E00E94630F089540E250E0BC0182E0FD
:101F60000E94630F0895CF93DF93EC0148E050E0A7
:101F7000BC0181E00E94630F88E0FE01A3EBB4E0A6
:101F800001900D928A95E1F7DF91CF910895A5E038
:101F9000B0E0EDECFFE00C94F930509048019091E6
:101FA000860490FF2AC08090C7029090C8028114D6
:101FB0009104A9F58091470143E0849FC001112459
:101FC0008A529D4F539A2BB1277F3BB138605FB740
:101FD000F894BC01549E600D711D1124861797075B
:101FE00009F076C05FBF8FE594E00197F1F700C07C
:101FF00000002596E0E10C94153180914901209173
:102000004A0133E0839FF0011124EA52FD4F821709
:1020100050F61182108212828F5F3396F8CF90FFB4
:10202000C9CFD12CC12C66246394712C53E0452E6A
:102030008091D20293010C2C01C0220F0A94EAF77E
:10204000822309F43CC0F601EE0FFF1FE80DF91DD5
:10205000E590F490E114F10409F4ACCF45E050E0D0
:10206000B701CE0101960E94033209810F3F39F179
:102070008A81800F9927991F8733910514F086E391
:1020800090E05C01AA0CBB1C8A0D9B1DFC01EA526E
:10209000FD4F5F01049D800111240A521D4F0A1556
:1020A0001B0520F0F5E0EF0EF11CD8CF98014D8113
:1020B0006C818B810E9480090D5F1F4FF0CF2FEF45
:1020C000C21AD20A36E0C316D10409F0B1CF72CFDA
:1020D000FC014191CF01E8E03BB9000000C047FF9F
:1020E0002BB9440F000000C000C000C02BB900C0D5
:1020F000EA9591F773CF0F931F93CF93DF93EC0182
:1021000010E000E090914B019017110609F06CF47B
:102110000E94C70F8C8190E00196817099278C8373
:10212000DF91CF911F910F91089520914901A8014E
:10213000420F511D9A01220F331F240F351F2A52BF
:102140003D4F4C816091880480918704969590174B
:10215000110651F04CF0442349F0409189040E944B
:1021600080090F5F1F4FCECF4423B9F340E0F7CF74
:10217000B0E0A0E0EEEBF0E10C94FD30EC014C811E
:10218000042F10E09801D8010E94DB329B01AC01C2
:102190000E94A6324B015C01E0E2F0E0E01BF10B93
:1021A000A5E5B0E0AC019B010E94A6326B017C0169
:1021B0009F01DF010E9462319B01AC010E94B1329C
:1021C0009B01AC01280D391D4A1D5B1DC701B601DD
:1021D0000E94B932F22E822F90E039E23F1520F1B1
:1021E00043E0249F9001112435952795122F1095D7
:1021F00000E085E5E82EEF1880914B01081718F1F3
:102200000E94C70F9C8181E0992319F0903219F444
:102210008FEF8093460180914601890F8C83CDB763
:10222000DEB7ECE00C94193125E530E0B901681B0C
:10223000790B9B01220F331F260F371F37FFD4CF97
:102240002F5F3F4FD1CF8E2D01FD8F2D2091490162
:10225000622F600F7727771F9B01220F331F260FF6
:10226000371F2A523D4F412F609188040E948009F8
:102270000F5FC2CFEF92FF920F931F93CF93DF9325
:10228000EC018C81811109C081E08C831092D40211
:1022900092E090934501809344018091490190918F
:1022A0004A0123E0829FF0011124EA52FD4F891771
:1022B00058F110E003E060914B01161758F10E94AD
:1022C000C70F809144012091D402280F2093D4029B
:1022D00090914501980F90934501191654F4022EE0
:1022E000000C330B40914B014150550B241735071F
:1022F00034F0819580934401813009F41C82CDB77C
:10230000DEB7E6E00C941F311182108212828F5FDB
:102310003396CDCFE12EF12C70E0C7010E944831F9
:1023200020914901820F482F50E02091D402022EC3
:10233000000C330BE216F306BCF020914501022E8F
:10234000000C330B2E153F057CF0809F900111246B
:102350002A523D4F409189046091880480918704FE
:102360000E9480091F5FA7CFFA01EE0FFF1FE40F45
:10237000F51FEA52FD4F118210821282F3CFB0E0B6
:10238000A0E0E5ECF1E10C94FD30EC018A81BB2486
:10239000BA9480FD02C0BB24B394A0904B018C8101
:1023A000811109C081E0B81220C08FEF8A0D80939F
:1023B000D30281E08C83F12CE12C46E3942EEA14C5
:1023C000B8F00E94C70F8091D30291E0B91257C0B4
:1023D000811150C080914B0181508093D3021C82A7
:1023E000CDB7DEB7ECE00C9419311092D302E1CFF7
:1023F000009149010E0D1F2D111DC801880F991F55
:10240000080F191F0A521D4FF80111821082128203
:1024100034E0C32ED12C812C8091D302880D8733D8
:102420002CF1692D0E943A31892F082E000C990B4E
:102430008E159F0591F4809189048C9DA0018D9D3E
:10244000500D1124559547955595479598016091E4
:102450008804809187040E9480098B0CF1E0CF1AD8
:10246000D108D1F68FEFE81AF80AA9CF87FFDDCFA0
:102470008A0DDBCF81508093D302BC82B1CF90E034
:10248000019660914B0170E00E9448318093D30225
:102490008C83A6CFEF92FF921F93CF93DF93EC0133
:1024A00010E0EE24EA94F12C60914B01161770F0C5
:1024B0000E94C70F9A818C8190FF27C08F5F8C8309
:1024C000DF91CF911F91FF90EF90089520914901E6
:1024D000422F410F5527551FCA019A01220F331F62
:1024E000280F391F2A523D4F70E0C7010E94483122
:1024F000962F8C814091890460918804199F800DEA
:1025000011240E9480091F5FCFCF8150D8CF9091B6
:10251000860490FF0EC09091490120914A0133E05A
:10252000939FF0011124EA52FD4F921718F00E9478
:10253000C70F08958183608342839F5F3396F5CFF1
:10254000A3E0B0E0E6EAF2E10C9405318C01809161
:10255000D50281110AC09E012F5F3F4F48E76FEF00
:102560000E9480098A818093D502F80164816130DC
:1025700069F08091D50240E0662361F040E062306E
:1025800011F44091D50280E060E004C06091D50272
:1025900040E080E00E948712F801848190E001967B
:1025A00063E070E00E94483184832396E4E00C9459
:1025B0002131A3E0B0E0EFEDF2E10C94073190910E
:1025C000860490FF0AC09E012F5F3F4F0E94800942
:1025D0004B8169818A810E9487122396E2E00C94E4
:1025E0002331CF93DF93EC01E6E8F4E0438162818D
:1025F0008C810E94D9128C818F5F8C83DF91CF9167
:102600000895CF93DF93EC01EC81F0E0E15EFA4FA7
:102610004491E6E8F4E0628181810E94D9128C81C4
:102620008F5F8C83DF91CF910895B0E0A0E0EBE164
:10263000F3E10C94FF307C015B016A018091700230
:1026400001E010E08A3010F40AE010E0C1E0D0E0D0
:10265000B501C701F6010995811104C021960C1737
:102660001D072CF4CDB7DEB7EAE00C941B31CC9FEC
:102670009001CD9F300D300D112490E080E045E3B6
:102680004A95F1F70000019682179307C1F7E0CF52
:10269000B0E0A0E0EEE4F3E10C9401316C017B01C9
:1026A00064E670E088E70E94412E8C01E601EC0CA4
:1026B000FD1C17FD0BC0FE01849164E670E00E94D2
:1026C000AD2E8C012196CE15DF0599F70E94232FA0
:1026D00081E00115110509F080E0CDB7DEB7E8E033
:1026E0000C941D318091920490919304911103C038
:1026F00091E089270895882369F062E070E081E223
:1027000096E00E944813811103C0809192040895BD
:102710001092920480919204EBCFCF93C0919204D7
:10272000809193048823D1F00E942A08605A754151
:102730008F4F9F4F60938E0470938F04809390040B
:1027400090939104C11108C062E070E08FE196E0BF
:102750000E944813811105C0C09192048C2FCF9123
:10276000089581E080939204F7CFB0E0A0E0EBEB16
:10277000F3E10C94F930FC016280448081E08483B1
:10278000EFE1F5E07490EEE9F5E0E491C0918904A1
:10279000C695C158D0E0CC0FDD1FCD2FDD27812C91
:1027A00075E0972EAA24AA94B12C55245A94E719BF
:1027B000EE2EF12C80914B01881638F00E94C70F45
:1027C000CDB7DEB7E0E10C941531C82CD12C82E0F6
:1027D000861568F09C9CF0019D9CF00D1124E85832
:1027E000FC4F80918704808380918804818341100D
:1027F00023C09C9CF0019D9CF00D1124E858FC4FD7
:102800001382128220914901C601820F911D9C0101
:10281000220F331F280F391F2A523D4F9C9CF00175
:102820009D9CF00D1124E858FC4F4281618180810C
:102830000E9480098394BECF9C9C80019D9C100DBA
:10284000112408581C4FF80183818823F1F081502E
:102850008383859DC0011124648170E00E94E33070
:10286000FB01FF27E15EFA4F8491E82FE719E59D10
:10287000C0011124B7010E94E33080918904689F50
:10288000B0011124F8017283BDCF0E94F331B5016C
:102890000E9448318C179D070CF0B4CFF2E0F6157A
:1028A00098F40E94F331B5010E944831F801808309
:1028B0000E94F331209188042695622F70E00E94D7
:1028C0004831280FF80121839C9CF0019D9CF00D5C
:1028D0001124E858FC4F128280918904893C58F0F9
:1028E00088EC9C9CF0019D9CF00D1124E858FC4F55
:1028F0008483838387CF8431A0F784E1F2CFB0E073
:10290000A0E0E5E8F4E10C94FD3049015A016B01C7
:102910007C010E946A098401A4016A2D7B2D88E054
:1029200090E00E94653294014A2D5B2DB601C701EB
:1029300000E20E948C31622F84E290E00E945332C8
:10294000CDB7DEB7ECE00C941931A3E0B0E0EBEAD0
:10295000F4E10C940031082FE62EF42EC22E909153
:10296000860490FF41C020918704281308C08091FD
:102970008804861304C080918904841729F080910B
:10298000D10282608093D102E92FE695E695AE2FC1
:10299000B0E0A656BE4F8C918093CF029C7F9430BE
:1029A00039F59E012F5F3F4F4F2D6E2D802F0E94D6
:1029B00080094B8169818A810E9487120093870474
:1029C000E0928804F0928904CC2071F02091860472
:1029D00060918A0470918B04302FA70180918C0440
:1029E00090918D040E947F142396E9E00C941C3191
:1029F000823019F4F0908904E1CF8630A1F189305A
:102A000091F18931D9F6E9516E2F6170B62EE695B4
:102A1000F0E0E65EFA4F1491D12C60914B01D6168E
:102A200018F00E94C70FCACFD19EC001112470E0D8
:102A30000E94E330802FB11014C0860F209149010D
:102A4000622F6D0D7727771F9B01220F331F260FF3
:102A5000371F2A523D4F4F2D6E2D0E948009D3946F
:102A6000DCCF861BEBCF022FA9CFE6E8F4E0438151
:102A700021E1421B08F440E021E0628181810E9453
:102A8000A5140895E6E8F4E0438121E1420F08F43B
:102A90004FEF21E0628181810E94A5140895E6E84C
:102AA000F4E0628121E1621B08F460E021E04381EF
:102AB00081810E94A5140895E6E8F4E0628121E195
:102AC000620F08F46FEF21E0438181810E94A51419
:102AD0000895E6E8F4E0818121E0438162818A5033
:102AE0000E94A5140895E6E8F4E0818121E0438185
:102AF0006281865F0E94A514089580918A048823CC
:102B000019F0815080938A042091860430918704C3
:102B1000409188045091890460918A0470918B04DB
:102B200080918C0490918D040E947F14089580916F
:102B30008A04833018F48F5F80938A04209186047E
:102B400030918704409188045091890460918A04EF
:102B500070918B0480918C0490918D040E947F145D
:102B60000895E6E8F4E085E0808311828FEF8283A8
:102B700088E783831482AFECB2E012968C911297AF
:102B8000836012968C93758125E030E04FEF58E713
:102B900060E0868197810E947F1408959091AA0435
:102BA00092FB222720F9281779F080FB92F9909365
:102BB000AA046091A9047091AA0484E090E00E94A4
:102BC000713282E00E94130E0895A4E0B0E0EBEEB3
:102BD000F5E10C94063140915302509154026091FA
:102BE0005502709156022FB7F8948091AC049091E1
:102BF000AD04A091AE04B091AF042FBF841B950B20
:102C0000A60BB70B11E084369105A105B10570F153
:102C10000E94320A6E5F7F4F8F4F9F4F69837A8386
:102C20008B839C838091150190911601895A9D4F49
:102C30004091140150E04530510510F044E050E05F
:102C4000BE016F5F7F4F0E94263282E090E00E94BB
:102C50006D30182F882351F00E942A086093530288
:102C6000709354028093550290935602812F2496BC
:102C7000E3E00C942231ACE0B0E0E1E4F6E10C9446
:102C8000073188E0E6E8F4E0DE01119601900D924C
:102C90008A95E1F78091CF029091D002A091D10264
:102CA000B091D20289879A87AB87BC872B854091E8
:102CB0006C0250916D0260916E0270916F023FB78D
:102CC000F8948091AC049091AD04A091AE04B091C1
:102CD000AF043FBF841B950BA60BB70B8436910541
:102CE000A105B10510F4222319F180911D019091E5
:102CF0001E01895A9D4F40911C0150E04D305105F5
:102D000010F04CE050E0BE016F5F7F4F0E94263212
:102D100083E090E00E946D30882369F00E942A08C9
:102D200060936C0270936D0280936E0290936F02B9
:102D30001092D10281E02C96E2E00C942331EF92C4
:102D4000FF921F93CF93DF9300D000D00F92CDB7A7
:102D5000DEB77B0190E080E00E946D30182F882361
:102D600009F487C04091070150E04115510511F069
:102D700041E050E06091080170910901695A7D4F6E
:102D8000CE0105960E94263240914F02509150028A
:102D900060915102709152022FB7F8948091AC0467
:102DA0009091AD04A091AE04B091AF042FBF841BED
:102DB000950BA60BB70B84369105A105B10540F420
:102DC00088E592E00E94A5069D81891709F451C00B
:102DD00081E090E00E946D3081111AC010E0809176
:102DE0004B0290914C02A0914D02B0914E02F7011E
:102DF00080839183A283B383812F0F900F900F90D4
:102E00000F900F90DF91CF911F91FF90EF90089559
:102E100040910F0150E04530510510F044E050E082
:102E20006091100170911101695A7D4FCE01019698
:102E30000E94263288E592E00E94A5069D818913B2
:102E4000CDCF0E942A0860934F0270935002809366
:102E500051029093520289819A81AB81BC81809307
:102E60004B0290934C02A0934D02B0934E0211E09E
:102E7000B6CF8091580290915902A0915A02B09118
:102E80005B0289839A83AB83BC831111E4CFA7CF04
:102E9000A8E0B0E0EEE4F7E10C94073166EE7EEFD7
:102EA00090E080E00E94713260E082E090E00E9459
:102EB000533281E090E090933E0280933D0261E0C6
:102EC00083E090E00E94533260E074E184E090E09F
:102ED0000E94713260E086E090E00E9453326FEF12
:102EE00087E090E00E94533240E050E0BA0188E071
:102EF00090E00E94653260E084E290E00E945332EC
:102F000060E087E190E00E94533260E08CE090E066
:102F10000E94533260E08DE090E00E9453321982AB
:102F20001A821B821C821D821E821F82188648E024
:102F300050E068E170E0CE0101960E94433240E02B
:102F400050E0BA0180E290E00E94653240E050E03B
:102F5000BA018FE090E00E94653240E050E0BA0193
:102F600083E190E00E9465322896E2E00C942331E0
:102F70001F920F920FB60F9211242F933F934F93EE
:102F80005F936F937F938F939F93AF93BF93EF93D1
:102F9000FF938091E10082FF09C08091E20082FFEF
:102FA00005C08091E1008B7F8093E1008091DA0081
:102FB00080FF24C08091D80080FF20C08091DA007B
:102FC0008E7F8093DA008091D90080FF9DC080E1E0
:102FD00089BD82E189BD09B400FEFDCF81E0809307
:102FE000BD048091B004811109C00E94BC060E94FA
:102FF0005D078091E20084608093E2008091E100AF
:1030000080FF17C08091E20080FF13C08091E20032
:103010008E7F8093E2008091E20080618093E200E5
:103020008091D80080628093D80019BC85E080939D
:10303000BD048091E10084FF2BC08091E20084FFF9
:1030400027C080E189BD82E189BD89B5982F917043
:1030500080FFFBCF8091D8008F7D8093D800809136
:10306000E1008F7E8093E1008091E2008F7E80936B
:10307000E2008091E20081608093E2008091BE04D2
:10308000882309F447C084E08093BD048091BD0487
:103090008091E10083FF27C08091E20083FF23C07D
:1030A0008091E100877F8093E10082E08093BD04FE
:1030B0001092BE048091E1008E7F8093E1008091A8
:1030C000E2008E7F8093E2008091E2008061809335
:1030D000E20042E060E080E00E942B078091F00077
:1030E00088608093F000FF91EF91BF91AF919F9125
:1030F0008F917F916F915F914F913F912F910F90A1
:103100000FBE0F901F90189519BC1092BD0410921D
:10311000B00474CF8091E30087FD93E09093BD04E9
:10312000B5CF78941F921FB61F9211248F939F934F
:10313000AF93BF938091AC049091AD04A091AE0485
:10314000B091AF040196A11DB11D8093AC04909382
:10315000AD04A093AE04B093AF04BF91AF919F9123
:103160008F911F901FBE1F9018959C014FB7F89428
:103170008091AC049091AD04A091AE04B091AF04E5
:103180004FBF821B930B08952FB7F8948091AC0426
:103190009091AD04A091AE04B091AF042FBF0895FB
:1031A0000E94C4189C0190919D0480919E04982BCC
:1031B00021F030939A042093990490919F04809178
:1031C000A004982B21F03093980420939704E09169
:1031D000A504F091A604309749F082E080939B0407
:1031E0000680F781E02D8BE994E00995089510920F
:1031F0003C0280914C01882339F18091A90487FF1A
:1032000023C0E2EDF1E08EE1DF011D928A95E9F73E
:1032100090E080E00E94BA0890E080E00E9495086B
:10322000109213020E94000F86E0EBE9F4E0DF0148
:103230001D928A95E9F710929404109295041092C9
:1032400096040E94D0180895EAECF1E086E0DCCF05
:10325000AAE2B0E0EEE2F9E10C9406318FEB94E0E3
:103260002091F100FC012193CF01F4E0873C9F07FE
:10327000B9F78091C004833009F470C0B8F481308C
:1032800009F447C0823009F4B1C08091E80083FF9F
:103290007EC28091BF049091C0049A3008F077C23A
:1032A000E92FF0E0E451FD4C0C945C318A3009F4D4
:1032B0008CC08B3009F46FC0893039F78091BF041E
:1032C000813219F78091C3049091C4040297E8F603
:1032D0008091E800877F8093E8008091E80082FF7A
:1032E00038C09091F3008091F200029731F4809100
:1032F000F100813011F0863021F48091F10080934B
:10330000B2048091E8008B778093E8000E940C075C
:10331000BCCF8091BF04813A09F0B7CF8091E8001B
:10332000877F8093E8008091C3049091C404892B27
:1033300061F468E083EB94E070E00E94B80780914C
:10334000E8008B778093E800A0CF60E090E080E019
:10335000F3CF8091BD048111C0CF97CF8091BF047E
:10336000813A09F092CF8091C3049091C404892BD3
:1033700009F08BCF8091E800877F8093E8008091EF
:10338000E80080FFFCCF80914C018093F100809198
:10339000E8008E77B9CF8091BF04813209F075CFF4
:1033A0008091C3049091C404892B09F06ECF809161
:1033B000E800877F8093E8000E940C078091C10499
:1033C00080934C010E94F71860CF8091BF04813236
:1033D00009F05BCF8091E800877F8093E8000E942E
:1033E0000C078091C2048093B1044FCF8091BF0439
:1033F000813A09F04ACF8091E800877F8093E80006
:103400008091E80080FFFCCF8091B104BECF80386E
:1034100099F0823809F0BBC18091C3048F70873066
:1034200008F0B5C18093E9008091EB0085FB882707
:1034300080F91092E90006C08091BB049091BC0411
:10344000911182609091E800977F9093E8008093BB
:10345000F1001092F1008091E8008E7794C18823EA
:1034600009F482C1823009F092C18091C1048111B6
:1034700085C18091C3048F702FEF280F263008F08C
:1034800086C18093E9002091EB0020FF77C1933043
:1034900031F48091EB0080628093EB006FC19091DA
:1034A000EB0090619093EB0021E030E001C0220F2F
:1034B0008A95EAF72093EA001092EA008091EB00E7
:1034C0008860EACF811163C11091C1041F77809198
:1034D000E3008078812B8093E3008091E800877F70
:1034E0008093E8000E940C078091E80080FFFCCFE9
:1034F0008091E30080688093E30082E0111183E013
:103500008093BD0444C18058823008F040C180914E
:10351000C1049091C2048C3D23E09207A1F583E0A1
:103520008A838AE289834FB7F894DE01139620E0FC
:103530003EE051E2E32FF0E050935700E49120FF8A
:1035400003C0E295EF703F5FEF708E2F90E0EA309E
:10355000C0F0C7968D939D932F5F243159F74FBFCD
:103560008091E800877F8093E8006AE270E0CE01F6
:1035700001960E94B8078091E8008B778093E8005D
:1035800006C1C096E7CF4091C3045091C404292FCF
:1035900033272330310509F444C078F52130310553
:1035A00009F46FC08BE390E0EDE1F7E022303105E4
:1035B00009F0EDC02091E800277F2093E8002091DA
:1035C000C5043091C6048217930708F49C0140E0BB
:1035D0002115310509F064C0411162C08091E800F5
:1035E00082FDC9CF8091BD04882329F2853019F26C
:1035F0008091E80083FFF2CFBECF21323105A9F1DF
:103600002232310509F0C3C04115510509F443C008
:103610004130510509F0BBC086EB90E0E3E2F6E0F3
:10362000C9CF992781309105C1F0009759F00297D1
:1036300009F0ADC0EAE6F7E0E4918E2F90E0EAE60B
:10364000F7E007C0EAE8F7E0E4918E2F90E0EAE8BF
:10365000F7E0009709F49BC0ADCFE8E7F7E0E4910D
:103660008E2F90E0E8E7F7E0F4CF4115510571F0B7
:103670004130510509F08BC089E090E0E8E4F7E0C3
:1036800099CF82E190E0E8E5F7E094CF89E090E01F
:10369000EFE2F7E08FCF84E490E0E9EDF6E08ACF47
:1036A0008091BD04882309F466CF853009F463CF87
:1036B0008091E80083FD5FCF8091E80082FD8ECF8E
:1036C0008091E80080FF84CF9091F3008091F20018
:1036D0002115310519F08830910550F041E0089727
:1036E00009F040E08091E8008E778093E80070CF89
:1036F00044914093F1003196215031090196E8CF71
:10370000803809F044C08091E800877F8093E8000A
:103710008091BE048093F1009ECE811138C010913B
:10372000C1041230A0F58091E800877F8093E80003
:103730001093BE040E940C07112311F084E005C011
:103740008091E30087FDFACF81E08093BD0442E0E1
:1037500061EC81E00E942B0742E261EC82E00E9472
:103760002B078091BD0413C08091C104813079F48E
:1037700081E0933009F080E08093BC041092E9006E
:103780008091E800877F8093E8000E940C07809179
:10379000E80083FF0AC08091E800877F8093E800FB
:1037A0008091EB0080628093EB00AA96E3E00C949A
:1037B00022311F920F920FB60F9211242F933F9335
:1037C0004F935F936F937F938F939F93AF93BF9329
:1037D000CF93DF93EF93FF93D091E900DF70809157
:1037E000EC00C82FC17080FDC0E81092E900809104
:1037F000F000877F8093F00078940E94281910923F
:10380000E9008091F00088608093F000CD2BCF70AC
:10381000C093E900FF91EF91DF91CF91BF91AF91FC
:103820009F918F917F916F915F914F913F912F91D8
:103830000F900FBE0F901F9018950E94F7182FEF52
:1038400084E39CE0215080409040E1F700C00000FC
:1038500088E19AE00FB6F894A895809360000FBEB7
:1038600090936000FFCF40919D0490919F04209120
:10387000A004662309F469C0942B922B20919E0426
:10388000922B31F098E09093940491E090939504FA
:103890008D3C41F40E941209819580939E040E9400
:1038A000D01808958E3C19F40E941209F6CF8F3C6F
:1038B00031F40E941209819580939D04F0CF803DE0
:1038C00019F40E941209F8CF893D29F40E94F008EA
:1038D00080939F04E4CF8A3D21F40E94F0088195F3
:1038E000F7CF8B3D31F40E94F00881958093A004BE
:1038F000D6CF8C3D19F40E94F008F8CF9FE2980FC4
:10390000983070F4815D990B21E030E001C0220F06
:103910008A95EAF780919C04822B80939C04BFCF08
:103920008D3D31F480919604816080939604B7CFE9
:103930008E3D21F4809196048260F7CF8F3D09F08F
:10394000AECF809196048460F0CF8D3C59F4809185
:103950009E0487FF0DC010929E0441110BC010926F
:10396000940408C08E3C81F480919E0418169CF348
:10397000442381F080919F049091A004892B09F049
:103980008ECF109295048BCF8F3C49F447FFF0CF38
:1039900010929D0480919E048111ECCFE0CF803D78
:1039A00019F41416ACF3E4CF893D29F4191604F781
:1039B00010929F04DDCF8A3D19F497FFD9CFF8CF3D
:1039C0008B3D29F427FFD4CF1092A004D1CF8C3D9A
:1039D00019F41216CCF3CCCF9FE2980F983090F4E4
:1039E000815D990B21E030E0B90102C0660F771FBD
:1039F0008A95E2F7CB01809590919C04892380936E
:103A00009C04B6CF8D3D31F4809196048E7F8093D7
:103A10009604AECF8E3D21F4809196048D7FF7CF32
:103A20008F3D09F0A5CF809196048B7FF0CF88233E
:103A300081F19CEF980F913A28F40E9436080E9479
:103A4000000F089590E2980F983050F4877091E03D
:103A500001C0990F8A95EAF7892F0E947A0CEFCF5F
:103A60009BE5980F933028F490E080E00E94BA081C
:103A7000089598E5980F9B3128F490E080E00E942B
:103A80009508089593E3980F933118F460E00E942D
:103A9000331C0895CF93C82F8823B1F18CEF8C0F7E
:103AA000813AA0F580914C01882301F18091A9040D
:103AB00087FF1CC0EC2FE695E695E695F0E0E05315
:103AC000FE4F828190E04C2F477021E030E002C031
:103AD000220F331F4A95E2F782239323892B79F033
:103AE0008C2F0E9436080E94000F09C0EAECF1E01A
:103AF0008191C817A9F381E0E03DF807C9F78C2F41
:103B00000E9461080E94000FCF91089580E28C0FFF
:103B1000883068F4C77021E030E001C0220FCA95F8
:103B2000EAF780913C02822B80933C02EBCFEBE5DD
:103B3000EC0FE33040F4F0E0E35BFE4F808190E077
:103B40000E94BA08E1CFE8E5EC0FEB3150F4F0E069
:103B5000EE0FFF1FE05BFE4F808191810E94950870
:103B6000D3CF83E38C0F833178F661E08C2F0E94F2
:103B7000331CCACF0F931F93CF93DF93C62FD42F3D
:103B8000022FFC0185818823A9F0609303050E9420
:103B9000C4189093020580930105C77081E001C0AD
:103BA000880FCA95EAF70E94590FDF91CF911F91B4
:103BB0000F91089580910305681335C08091010528
:103BC000909102050E94B518883C910560F510E2BD
:103BD0001D0FCD17B9F080E28C0F883040F4C7700C
:103BE00081E001C0880FCA95EAF70E94520F183091
:103BF00048F481E09D2F977001C0880F9A95EAF7ED
:103C00000E94590F802F0E944A1D802F0E94171D6D
:103C1000183058F6D77081E001C0880FDA95EAF7BE
:103C20000E94520FC2CFC77081E001C0880FCA95B1
:103C3000EAF7F6CF8091A104882319F00E94C418F6
:103C400008950E94320ACB0108956091860466951A
:103C5000669570E04BE050E089E391E00E940C3201
:103C6000892B19F481E08093D0020E941A1E909350
:103C7000CA028093C9028091D10284608093D102EC
:103C800008959091860490FF3AC09370811138C0D6
:103C90009460909386048091D10281608093D102D8
:103CA000662391F020918604309187044091880426
:103CB0005091890460918A0470918B0480918C04E6
:103CC00090918D040E947F1460918604669566959C
:103CD00070E04BE050E089E391E00E940C32892BC8
:103CE000B9F00E94470981E08093CC0220E0409126
:103CF000890460918804809187040E94A514089526
:103D00008B3210F0986AC5CF880F880F982BC1CFDF
:103D10000E94251EE8CF8091860486958695815065
:103D200009F48AE261E00E94411E089580918604B0
:103D3000869586958F5F8B3208F081E061E00E9466
:103D4000411E08959091860490FF09C0969596951E
:103D5000981728F0961718F40E94961E089561E0AF
:103D60000E94411E0895B0E0A0E0E9EBFEE10C9452
:103D7000FF308C01FC018481882309F467C021E0B5
:103D8000408151816281738195810E94910DEC0186
:103D9000F8019581992309F483C481818093A0025D
:103DA000808180939F0280E280933101D0939E02B4
:103DB000C0939D029E0130522115304238F4F80123
:103DC0008681807F09F45EC0FE010AC09E013054E6
:103DD00021153041C8F4F8018681807FFE0109F089
:103DE000FF27ED33F10528F4E851FF4FE491E0930C
:103DF0003101FE01E851FC47E730F10508F042C00F
:103E0000EA50FD4C0C945C319E013A9521153F41DE
:103E1000D8F29E01205A32452032310550F3FE017E
:103E2000E0CF26E241EE61EEC8010E94BA1D80910A
:103E30001102877059F0F8018581882339F080914B
:103E4000AA0482FF03C082E00E94130ECDB7DEB742
:103E5000EAE00C941B3127E245EE65EEE5CF26E261
:103E600041EE60EEE1CF27E245EE64EEDDCF26E2E3
:103E700041EE62EED9CF27E245EE66EED5CF28E2DD
:103E800041E0EBCF109203059E01305723323105FC
:103E900008F020C484E090E00E943D329093AA0490
:103EA0008093A904FE01E150F047E232F10520F4CD
:103EB000E350FD4C0C945C318091A90481608093A7
:103EC000A90495C08091AA0488608093AA048FC039
:103ED0008091A9048260F3CF8091A9048460EFCF20
:103EE0008091A9048860EBCF8091AA048160EDCF16
:103EF0008091AA048260E9CF8091A9048061DFCF1C
:103F00008091A9048062DBCF8091A9048064D7CF1F
:103F10000E94F7188091A9048068D1CF8091A904EC
:103F20008C60CDCF8091AA048360CFCF8091A9040B
:103F30008E7FC5CF8091AA04877FC7CF8091A904C7
:103F40008D7FBDCF8091A9048B7FB9CF8091A904CB
:103F5000877FB5CF8091AA048E7FB7CF8091AA04C6
:103F60008D7FB3CF8091A9048F7EA9CF8091A904C2
:103F70008F7DA5CF8091A9048F7BA1CF0E94F718D8
:103F80008091A9048F779BCF8091A904837F97CFDD
:103F90008091AA048C7F99CF8091A90482FB9927F4
:103FA00090F921E0922790FB82F990FB83F987CF6B
:103FB0008091AA04982F909591708E7F892B90FB09
:103FC00081F983CF9091A904892F8F7B96FF80641C
:103FD00076CF0E94F7189091A904892F97FB87F953
:103FE00080586DCF61E08EE090E00E945332609186
:103FF000A9047091AA0484E090E00E9471320E94AA
:10400000F71815CF60E0EFCF9091A904892F8F7E2C
:1040100094FF806154CF9091A904892F8E7F90FFE7
:1040200081604DCF9091AA04892F877F93FF88608C
:104030004CCF85E35FC38091F001811104C089E218
:104040000E94360859C385E3FBCF992309F434C392
:10405000C3303CE7D30709F4F7C008F0DAC0C11554
:104060009CE7D90709F4E3C0C130DC4709F4F2C08A
:10407000F8018581C081D181882309F4F9C0CE017E
:104080000E94B20CF82E682FCE010E94260DBE01B0
:104090008F2D0E943D0B0E945C0BD82FC92FA82E9C
:1040A000F801C580B680B2943FE0B322809111023E
:1040B000877009F1EC2CCC20F9F0892F807F8034B7
:1040C00069F080E28D0F8830B0F0892F807E8032D9
:1040D00029F4F1E0FD1778F4BB2069F08091AA047F
:1040E00082FF09C082E00E94130E80911102877046
:1040F000EE24E3948111E12CDC2ED2942FE0D22225
:104100002BE02D1508F419C1ED2DF0E0E15EFC4C1B
:104110000C945C318091860480FF1EC0282F2E7F76
:10412000209386043091870440918804509189043B
:1041300060918A0470918B0480918C0490918D041D
:104140000E947F140E9447098091D1028160809370
:10415000D1020E94C70F6BCE81608093860461E01C
:10416000869586950E94411E62CE4BE85EE166E927
:104170007EE10E9440095BCE46E95EE16BE87EE1AC
:10418000F8CF49E655E163E775E1F3CF43E755E141
:1041900069E675E1EECF4FE455E16CE575E1E9CFF5
:1041A0004CE555E16FE475E1E4CF45E355E162E4A8
:1041B00075E1DFCF42E455E165E375E1DACF4DE724
:1041C00055E167E975E1D5CF47E955E16DE775E15F
:1041D000D0CF61E081E0C6CF65E082E00E94A21E00
:1041E00026CE68E086E0FACF6EE089E0F7CF64E1A2
:1041F0008FE0F4CF67E185E1F1CF61E088E1B2CFF4
:1042000062E289E1EBCF61E083E2ACCF6AE285E272
:10421000E5CFCB35FCE7DF0749F1CC352CE7D207FA
:10422000D9F0CA35DC4709F023CF81E01CC00E94D9
:10423000F7188FEF94E3ECE081509040E040E1F715
:1042400000C000000E9419086FEF7FEF90E080E04F
:104250000E9471320E941D1C8091AA0482FB882753
:1042600080F991E089270E94CE1502CF80E0FBCF34
:10427000CE010E94F30CF82E0ACF3C2F3F70F32E94
:10428000C07F19F0F29490EFF922CC20B9F0FF2012
:1042900069F080E28D0F883010F0A11009C0809184
:1042A0003C02F82AF0923C020E94000F8D2F43C07E
:1042B00080911302F82AF0921302F6CF8D2F0E94FC
:1042C000171DFF20D1F1D05ED83010F0A11004C02E
:1042D0008F2D0E947A0C06C0F09480911302F82270
:1042E000F09213020E94000F28C08C2F8F70F82EBE
:1042F000C07FC03219F0F29480EFF822AA2059F062
:1043000091E0A91609F479C0CC2009F485C0BB203E
:1043100009F447C0CBCF8091AA0482FD3EC0CC20D7
:10432000B1F1FF2039F080913C02F82AF0923C0272
:104330000E94000F80E00E944A1D2D2D2850330B53
:104340002430310510F40E94DF08EE20A9F080919E
:10435000110280FD11C0F80115828695869586951B
:104360000E942A0EC8010E94B31E809111028695F8
:10437000869586950E94010E20E0F80140815181CA
:1043800062817381848195810E94910D5FCD80E06F
:104390000E94171DFF2089F29BCFCC20A1F0B11005
:1043A00004C08F2D0E94590FC8CFE1E0BE12C5CFC7
:1043B000809112029F2D9823F91609F4BECFF82A96
:1043C000F0921202BACFB110B8CF8F2D0E94520FC7
:1043D000909112028F2D892329F08F2D80958923AA
:1043E000809312028091F1019F2D982309F4A5CFAB
:1043F000F094F822F092F101A0CFCC2029F0F5E062
:10440000FB1508F49ACFCDCF24E02B1508F495CFF7
:104410008F2D0E94520F91CFBB20D1F339E3A3120D
:1044200009C08FEF97EEE3E081509040E040E1F764
:1044300000C000008D2F0E94171D7FCF8C2F869506
:104440008695837069F0813009F077CF8D2F9C2F8E
:104450009370C11002C080E090E00E9495086DCF7B
:104460008D2F9C2F9370C11002C080E090E00E94BD
:10447000BA0863CF6C2D8D2F0E94331C5ECF8C2F1A
:10448000837009F03FC0C11058CF4D2F429546951B
:104490004770440F440F2D2F2F7030E0042E02C0C0
:1044A000220F331F0A94E2F790E080E0D4FF09C0A6
:1044B0008FE090E002C0880F991F4A95E2F780953F
:1044C0009095C695C695C370C23099F078F4409126
:1044D0003D0250913E02C13039F0822B932B842350
:1044E00095230E945C0D29CF242B352B822B932BF7
:1044F000F8CF822B932B20913D0230913E028227F0
:104500009327EFCF8695CC2011F08C2F81708823D4
:1045100009F413CF4D2F429546954770440F440F31
:104520002D2F2F7030E0042E02C0220F331F0A946B
:10453000E2F790E080E0D4FF09C08FE090E002C095
:10454000880F991F4A95E2F780959095C695C69574
:10455000C370C23099F078F4409194025091950262
:10456000C13039F0822B932B842395230E94FA0DBE
:10457000E4CE242B352B822B932BF8CF822B932B3D
:10458000209194023091950282279327EFCFCF702C
:10459000CC2029F08C2F0E942A0E8D2F03CF8D2F37
:1045A0000E94520F8C2F0E94010EC7CE8D2FF2EF6A
:1045B000AF1699F1FA1570F020EFA216D1F031EF95
:1045C000A31691F0CC2009F45BC0B1106FCE8C2FF4
:1045D0008F7127C093EFA91639F1E4EFAE12F2CF35
:1045E0008091AA0482FD2EC08C2F8F71CC20D9F22D
:1045F00018C0CC2069F0F4E0FB1508F49ECECF7112
:1046000081E090E002C0880F991FCA95E2F7B8CF09
:1046100025E02B1508F491CEF2CF8C2F8F71C110AD
:10462000C2CF0E942A0E89CE90E080E0CC2009F40F
:104630009DCFCF7181E090E002C0880F991FCA958D
:10464000E2F794CFCC2089F0CF718C2F0E942A0EF4
:104650008091AA0482FF07C038E0C39FC0011124E3
:104660008360809311028C2FDCCF81E00E94130EB7
:1046700081E08B1508F061CE82E00E94130E5DCEC2
:10468000BB2059F0893309F0D5CE9FEFE7EEF3E078
:104690009150E040F040E1F7CBCE8C2F8F7183CF6B
:1046A000FE01E851FC47E730F10508F4A9CBC6311B
:1046B0002CE7D20709F4BFCC80913C028272FE0144
:1046C000E052F847E531F10508F0D2CCE55DFC4C4D
:1046D0000C945C31C631FCE7DF0709F0B6CC809161
:1046E0003C028A7A91E009F490E09093F001811104
:1046F000A0CC89E20E9461080E94000F98CBCF9362
:10470000DF9380911002807F09F04DC080910F02ED
:10471000882309F448C0E09100055091C704C09176
:104720000B02D0910A0260910C0270910D0247E0D9
:104730005E17C9F18E2F90E0E49FF0011124E85339
:10474000FB4F2481222391F1489FF001499FF00DF6
:104750001124DF01A853BB4F11962C9111972C13F4
:1047600025C02C912D1322C015962C91159721113F
:104770001DC012962D913C91261B370B283C31050C
:10478000A8F4809110028F70806180931002E25330
:10479000FB4F80818F70806180838AE092E00E946D
:1047A000B31E0E94A80CDF91CF910895FC013196B1
:1047B000E770BECFA4E1B0E0E0EEF3E20C94FD3090
:1047C0008C0186E0F801DE011F9601900D928A951A
:1047D000E1F7F8018481E5809AE0A92E92E0B92EF4
:1047E00090910E02911128C0882319F1EE20F1F06A
:1047F000C8010E946E0DF82E8823C1F087E0F801F1
:10480000D50101900D928A95E1F780910E028130D9
:1048100031F480910A0290910B020E94E60C0E94F2
:104820007F238F2D6496ECE00C941931C8010E940F
:10483000B31EFF24F394F5CFD080C1808280938093
:10484000F0900F0220910C0230910D02A401421B46
:10485000530BFF2009F4D9C0483C510508F092C021
:104860008823F9F290910B0280911002282F207F6B
:1048700009F056C0C91214C090910A02D91210C092
:10488000E11048C08F708061809310028AE092E04E
:104890000E94B31E80911002F8018683F12CC1CFD3
:1048A000E11038C06C2D8D2D0E9486066C2D8D2D4B
:1048B0000E948606E82E8111F1CFDF86C88A8F8597
:1048C00098890E94E60C292F22952F70243058F4E5
:1048D0009F70223088F0992399F0F8019681907F9B
:1048E00079F4FE2C9ECF2A5F2F70223068F0C80129
:1048F0000E94B31EEF2CF5CF992311F0882389F382
:10490000805E883070F3F3CF803F58F3815F83304F
:1049100070F7E7CF80911002816080931002BECFC4
:10492000C91207C090910A02D91203C0EE2009F4FF
:104930008DC0C8010E946E0D882309F477CFEE2048
:1049400009F474CF80911002803288F020910A021D
:1049500030910B02398728879B868A8690910E02B8
:104960009C871D868E87CE0108960E94B31E87E025
:10497000F801AAE0B2E001900D928A95E1F70E9459
:104980007F2357CF90911002292F207F51F48AE086
:1049900092E00E94B31E87E0F50111928A95E9F733
:1049A0007DCF882309F43DCF80910B028C1110C07C
:1049B00080910A02D8120CC0E1100AC09683C80187
:1049C0000E94B31E87E0F50111928A95E9F729CF7D
:1049D000C8010E946E0D882309F428CFEE2009F447
:1049E00025CF80911002803210F220910A0230917E
:1049F0000B023A8329839C828B8290910E029D83C5
:104A00001E828F83CE010196B0CF483C5105D0F66F
:104A1000882309F40ECFFE2CEE2009F407CF8091F5
:104A20000B028C1120C080910A02D8121CC0809108
:104A3000100280FD0FC0982F907F61F08683903F19
:104A400031F0982F907F905F8F70892B8683C801FB
:104A50000E94B31E87E0F801AAE0B2E001900D9237
:104A60008A95E1F7DECEC8010E946E0D81117FCFDD
:104A700080911002816080931002C8010E94B31ED1
:104A8000D0CEABE1B0E0E7E4F5E20C9405314E8B1B
:104A90005F8B688F798F8A8F9B8F192F911110925E
:104AA00013021D8A86E0FE017696DE011F960190B4
:104AB0000D928A95E1F70A8D002341F021E04F85A0
:104AC000588969897A89C8010E94910D0B8B1C8BCA
:104AD00087E0FE013F96DE01189601900D928A95BF
:104AE000E1F7CE0108960E94DA2381110CC087E01D
:104AF000FE013896DE01119601900D928A95E1F73C
:104B00008C8581110BC017E0809100059091C7043E
:104B1000891331C06B96E4E00C9421312091C704D5
:104B200030E0C90101968770992740910005481728
:104B3000190699F097E0929FD001939FB00D112430
:104B4000A853BB4FFE01319601900D929A95E1F763
:104B50008093C7040E94A80CD6CF0E94F718109229
:104B6000C7041092000587E0EAE0F2E0DF011D9241
:104B70008A95E9F7C8CF819FC001112488539B4FC4
:104B80000E94DA23882331F28091000590E001969B
:104B90008770992780930005B7CFA4E1B0E0E3EDDB
:104BA000F5E20C94FC308E01035F1F4F88E0D801C2
:104BB0001D928A95E9F788E8C82E81E0D82EF12C5D
:104BC000E12CAA24A394B12C22E9822E21E0922E7A
:104BD000F60181916F018F3F09F442C0F894E82FEC
:104BE000E295EF70F0E021A18F70A50102C0440FA3
:104BF000551F8A95E2F7CA01922F982B91A392A193
:104C00008095892382A3789400C0ECE8F1E0712CB0
:104C100031E021912F3F09F498C0A22FA295AF70E7
:104C2000B0E090968C9190E02F7002C0959587959A
:104C30002A95E2F780FD89C0832F782A330F8E16DC
:104C40009F0639F7F601319780818F3F11F00E945E
:104C50001B0A50EA5A95F1F7F801EE0DFF1D70821C
:104C60008FEFE81AF80AA4E0EA16F10409F0B0CFD1
:104C700048E050E0B80185E792E00E9419320097C1
:104C800041F028E0F801A5E7B2E001900D922A95E5
:104C9000E1F700917E0210E000581D4F892B09F4C6
:104CA00056C081E0809343020E94C4189093420250
:104CB00080934102F12CE090A104EE2009F4A1C000
:104CC00019821A821B821C82809170028A3008F03D
:104CD00062C04FE956E1BE016F5F7F4FC8010E947D
:104CE0001513882309F47CC045EE55E1BE016F5FC2
:104CF0007F4FC8010E941513882309F471C04BE34C
:104D000056E1BE016F5F7F4FC8010E9415138823D3
:104D100009F466C01092700280917D0290E044E038
:104D200050E0BE016F5F7F4F80589D4F0E94193247
:104D300021E020934A02892B09F044C0E12C8E2DFA
:104D40008F296496EDE00C94183180E076CFF090D6
:104D50004302FF2009F4AECF8091410290914202BC
:104D60000E94B518059708F4A5CF44E050E065E728
:104D700072E0C8010E941932892B59F084E0E5E7FE
:104D8000F2E0D80101900D928A95E1F7109243026A
:104D900092CFF12CFBCF80914402909145020E946A
:104DA000B518843F914008F094CF80914A0288233F
:104DB00029F284E0FE013196DF011D928A95E9F720
:104DC00010924A02E0917D02F0E0E058FD4F8981A7
:104DD0009A81AB81BC8180839183A283B383AFCF5F
:104DE000809170028F3F31F08F5F809370028A3024
:104DF00008F492CF0E94C418909345028093440215
:104E0000D4CF84E0F801A8E5B2E001900D928A9534
:104E1000E1F788E592E00E94A50680935702809012
:104E20005C0290905D02A0905E02B0905F02809163
:104E3000460290914702A0914802B091490288161B
:104E40009906AA06BB06B1F08092460290924702EC
:104E5000A0924802B09249020E942A08861A970A34
:104E6000A80AB90A8092710290927202A09273020B
:104E7000B09274028CE0E0E6F2E0DE01119601905F
:104E80000D928A95E1F78091600286958695D09083
:104E90006102C0906202B0906302009169021091B9
:104EA0006A0290916B0210926A02112309F447CFB3
:104EB00014FD9093D20210FF0BC0298190918604BB
:104EC00020FF1AC091609093860460E00E94411E0A
:104ED00011FF06C020E04B2D6C2D8D2D0E94A514D6
:104EE00012FF04C00023A9F00E94251E13FF27CF44
:104EF00081E08093CC0223CF9E7F909386040E9412
:104F000047098091D10281608093D1020E94C70F2E
:104F1000DFCF0E944709EACFA6E0B0E0E2E9F7E27E
:104F20000C9405310E94C4188C0180913F0290912D
:104F300040028017910781F019821A820E94C418DA
:104F4000682F49815A81792F80E090E00E944125A5
:104F50001093400200933F022696E4E00C94213126
:104F60001F921FB61F9211248F939F93AF93BF93ED
:104F70008091AB04811113C08091AC049091AD0479
:104F8000A091AE04B091AF044196A11DB11D8093D4
:104F9000AC049093AD04A093AE04B093AF04BF9162
:104FA000AF919F918F911F901FBE1F901895CDB705
:104FB000DEB761970FB6F894DEBF0FBECDBF85B7E1
:104FC000806885BF85B7806885BF84B7877F84BFC9
:104FD0000FB6F894A8958091600088618093600076
:104FE000109260000FBE80E890E00FB6F8948093B6
:104FF0006100909361000FBE89E19AE09093C70130
:105000008093C6010E94BC060E945D078091E20069
:1050100084608093E20078948091BD048823A1F09D
:105020001091E9001F709091EC00892F817090FD24
:1050300080E8182B1092E9008091E80083FD0E941F
:1050400028191F701093E90082E084BD93E095BD9C
:105050009AEF97BD80936E001092710210927202C7
:10506000109273021092740288EC90E01091E300A9
:10507000111F1127111F61F4AFE3BCE91197F1F77C
:1050800000C00000019791F70E94BC061092BD0479
:105090001093A1041093A20410932401112309F486
:1050A00072C0109247018BE1809348010E94812FCA
:1050B000809124018091240194E0811190E09093EB
:1050C0007E0284E0891B80937D0284E90E941B0A92
:1050D00086E60E941B0A87E90E941B0A86EC0E9452
:1050E0001B0A0CE811E0F80181918F018F3F11F04C
:1050F0000E941B0AF1E002391F07A9F788E0E0E8E7
:10510000F2E0DF01282F1D922A95E9F7E5E7F2E0AA
:10511000DF011D928A95E9F790E080E00E943D3220
:10512000863E9E4F11F00E94481782E090E00E9458
:105130002F328093880284E090E00E943D32909369
:10514000AA048093A9040E94CD25EFEFF6E721E0A1
:10515000E150F0402040E1F700C000000E94CD2562
:105160008091A204E4E08111E0E0F0E0E058FD4F1E
:10517000808181FF0EC06FEF7FEF90E080E00E94A2
:1051800071320E9419088BE1809347018093480196
:105190008FCF83E090E00E942F3290E00E945C0D60
:1051A00080919402909195020E94B60D8091A10485
:1051B000811139C182E08093C10280E880930405A7
:1051C0000E943B2E6BE070E08BE793E00E94481357
:1051D0008823E9F18091C10265E070E081FD25C17D
:1051E00086E793E00E944813882389F16DE070E020
:1051F00084E693E00E944813882349F10E942A081C
:10520000605A75418F4F9F4F60938E0470938F0447
:105210008093900490939104E7E0F5E080E092E0C1
:10522000DF019C011D9221503040E1F7F0930E0701
:10523000E0930D078FEF9FEF909306058093050590
:1052400081E080939304809392041092C202809133
:105250007F0281117CC090E080E00E943D32863E5A
:105260009E4F21F00E9448170E94B11588E090E0FF
:105270000E9437324B015C0184E290E00E942F32A1
:10528000282F30E040E050E060E070E080E090E007
:1052900000E20E947131282939294A295B2920938B
:1052A0008604309387044093880450938904609364
:1052B0008A0470938B0480938C0490938D04809166
:1052C000D10283608093D1022C7F89F50E94B115B1
:1052D00088E090E00E9437326B017C0184E290E02C
:1052E0000E942F32282F30E040E050E060E070E074
:1052F00080E090E00E947131B22FA32FF42FE52FB0
:105300005B0197018601BC29A12BFE29E32BB093F9
:105310008604A0938704F0938804E0938904609343
:105320008A04B0928B0480938C0490938D040E9425
:105330006A090E9447098091860480FF05C060E0E9
:10534000869586950E94411E81E080937F02809120
:10535000A104811102C00E94842F86E893E09093FB
:10536000C8028093C70285E291E09093A6048093DF
:10537000A504AAE08A2E912CA12CB12C8091BD0409
:1053800000E112E1853009F48DC00E94CD2509E8C5
:1053900012E0F0E8EF2EF2E0FF2ED701F801919134
:1053A0008D9132E0E139F30709F486C09817B9F31B
:1053B0004090A104D12C33243394D701CD907D01AA
:1053C000F80151908F015C1429F15C24712C662442
:1053D0006394852D8621B1F04420A1F07F82D88688
:1053E0000E94C4189A8789873B8691E08C2D86217C
:1053F00009F490E09C874F81588569857A858B8573
:105400000E9441257394660CF6E07F12E2CFF8010A
:105410003197C082D39428E0D212CFCF0E94320AB3
:1054200031E03D874EC080E0C6CE81E793E0DACE22
:105430008091BD04843031F10E9472131092AB044C
:1054400088E190E0A0E40FB6F894A89580936000FE
:105450000FBEA093600083B7817F846083BF83B752
:10546000816083BF7894889583B78E7F83BF0FB6A2
:10547000F894A895809160008861809360001092F4
:1054800060000FBE8091BC04882361F00E94CD258E
:10549000E0E8F2E081918111C9C328E832E02E17DB
:1054A0003F07C1F78091BD04853009F4C1CF0E9448
:1054B000F7180E94DF0869CF98137ACF0E948C27D3
:1054C0001D868091D002882309F465C08091CF02A7
:1054D000E0918604E695E695E81BE093CB028230E6
:1054E00009F0C1C0F0E0EB55FC4FE4910E2F10E045
:1054F000E1E0EE2EE3E1FE2E8091CC02882361F004
:105500001092CC020E941A1E9093CA028093C90284
:105510001092CE021092CD020E941A1EE091C90292
:10552000F091CA029C012E1B3F0B2F3F3F4798F57D
:10553000209193022223B1F01092930220919102C4
:1055400030919202821B930B8F3F9F4758F4205D4E
:105550003A4830939202209391028091D102886060
:105560008093D102C090CD02D090CE02E00FF11F07
:10557000F093CA02E093C90289EC92E0F701099521
:105580008091CD029091CE02892B29F4CD2819F07B
:1055900081E0809393028091C602882369F0109283
:1055A000C6028091D002811107C08091860460E01C
:1055B000869586950E94411E80919304882309F464
:1055C00021C18091C3029091C4020E94B518C29774
:1055D00008F4F8C00E94C4189093C4028093C302D8
:1055E00087E095E090930E0780930D078091A104CA
:1055F000882309F430C28AEC93E00E94BA0E20910D
:10560000940230919502832F9927009709F497C04F
:105610009C0188E0A901F4E056954795FA95E1F7D9
:105620004115510511F08C5F9A01A90156954795D6
:10563000569547954115510511F08E5F9A013695A3
:105640002795232B09F08F5F813009F4BEC1882391
:1056500009F477C0823009F4BBC1833009F4BBC1BF
:1056600089EA93E070C0863059F4F0E0EE55FC4FC3
:10567000E4910E2F10E071EFE72E72E1F72E3CCF90
:10568000893061F4E695F0E0E156FC4FE4910E2F8D
:1056900010E06AE4E62E62E1F62E2ECF8F3061F440
:1056A000E695F0E0E456FC4FE4910E2F10E05FEB3E
:1056B000E52E51E1F52E20CF853159F4F0E0E75683
:1056C000FC4FE4910E2F10E04AE3E42E41E1F42E6A
:1056D00013CF08E210E098EBE92E90E1F92E883123
:1056E00009F40ACF833249F4E7E9F3E00591149114
:1056F00030EAE32E32E1F32EFFCE8432C9F000ED22
:1057000017E0B6E4EB2EB9E0FB2E853209F0F4CEBB
:105710008E2F63E00E942E31E92FF0E0EC56FC4F13
:10572000E4910E2F10E025EBE22E23E1F22EE4CEE1
:1057300004EF11E08BE7E82E80E1F82EDDCE80E06B
:1057400069CF82EC93E00E94FA0E8091A002805D06
:105750000E943A0E88ED93E00E94BA0E80919F025B
:10576000805D0E943A0E84ED93E00E94BA0E409054
:105770009D0250909E0280912F0190913001481619
:10578000590609F02BC180919C02803209F026C194
:10579000E6E9F2E08F0181918032E1F3F8010190B6
:1057A0000020E9F79F012150310979010E151F05ED
:1057B00008F44BC182ED93E00E94BA0E8091310152
:1057C0000E943A0E8091050590910605892B09F0FB
:1057D00047C1809192048823A9F00E942A08009171
:1057E0008E0410918F042091900430919104601BDD
:1057F000710B820B930B6F3F7F4F8F4F9F4710F4BE
:105800000E9472134D8541110E948D1386E0EBE9D1
:10581000F4E0DE01119601900D928A95E1F7D090A7
:105820009C04F0909D0400919E04E0909F041091D0
:10583000A00410929D0410929E0410929F04109256
:10584000A004802F8F2909F445C08091990490917C
:105850009A040E94B5189C0190919404992309F42C
:1058600005C225313105B0F19F3F19F09F5F90933C
:105870009404FF2059F00E9412099FEF1F140CF4AA
:1058800091E0899F802D112480939D04002359F07D
:105890000E94120991E010160CF09FEF899F802D55
:1058A000112480939E0480919D04882399F0C090D8
:1058B0009E04CC2079F00E943209882309F4AEC1FD
:1058C00080939D048C2D0E943209882309F4A8C17D
:1058D00080939E04812F8E2909F445C080919704FE
:1058E000909198040E94B5189C0190919504992379
:1058F00009F4B7C121353105B0F19F3F19F09F5F21
:1059000090939504EE2059F00E94F0089FEF1E142A
:105910000CF491E0899F802D112480939F04112322
:1059200059F00E94F00891E011160CF09FEF899F4A
:10593000802D11248093A00480919F04882399F0E6
:10594000E090A004EE2079F00E943209882309F447
:1059500069C180939F048E2D0E943209882309F427
:1059600063C18093A00480919C04D81217C08091D9
:105970009D04882311F08F1111C020919E042223D1
:1059800011F002130BC09091A004992311F0191388
:1059900005C030919F04332309F45EC10E94D018E2
:1059A00086E0FE013196ABE9B4E001900D928A9554
:1059B000E1F70E94DF089091C502891709F4DECC57
:1059C0008093C5020E942A08D9CC8CEB93E0BBCE11
:1059D00086EB93E0B8CE8FEA93E0B5CE50923001DB
:1059E00040922F0180E280939C02712C612C1092D6
:1059F0009B0256E9C52E52E0D52E61E9E62E62E003
:105A0000F62E8601C301B201A50194010E94B932AC
:105A1000605D603319F4C016D10631F041145104B1
:105A20006104710409F460E2D80114966C93C30117
:105A3000B201A50194010E94B93229013A01015035
:105A40001109E016F106F1F6A3CED8018D918D0172
:105A50000E943A0EABCE8AED93E00E94BA0EB2CE0F
:105A600080919304882309F4B4CE8091C2028111FD
:105A7000B0CE0E948D1320910505309106052115A9
:105A8000310509F4A6CE80E041E050E0482E512CCB
:105A90001A01082E02C0220C331C0A94E2F7B1014D
:105AA00062237323672B11F48F5FF0CF9091C102B3
:105AB00090FF9AC0880F880F880F8093340110924E
:105AC0003701895F8093350183E08093380124E6B4
:105AD00030E047E050E062E371E088E70E94DB2EAF
